:040000006F10106C01
:10000400000000000000000090000020BE0200205C
:10001400A9BDF9F3900000200000000000000000DA
:10002400900000209000002000000000000000006C
:10003400900000200000000090000020000000005C
:1000440090000020900000209000002090000020EC
:1000540090000020900000209000002090000020DC
:1000640090000020900000209000002090000020CC
:10007400AE0300209000002090000020900000209B
:1000840090000020900000209000002090000020AC
:1000940001A0B7170040985F885FE31EE5FE8280E9
:1000A400F375048001000100B71700409306700542
:1000B4002380D704130780FA2380E704010001009A
:1000C40003C6B7041376F60DA385C7041376050299
:1000D4004DCE03C6A700118A0DE60100010023805E
:1000E400D7042380E7040100010003C7A7001367B6
:1000F40047002385E7009307004B01000100FD172B
:10010400EDFF01000100B71700409306700523803E
:10011400D704130780FA2380E704010001007D89D6
:100124002394A70001000100010001000100010067
:100134002380D7042380E7040100010001000100AB
:100144003727004093061005A303D78023800704B4
:100154000100010001000100B717004013077005FA
:100164002380E704130780FA2380E70401000100D9
:1001740003C7B70413670708A385E70423800704AC
:10018400010001007390058082801376050445C246
:1001940003C6A700418A0DE6010001002380D704AD
:1001A4002380E7040100010003C7A70013670701C8
:1001B4002385E7009307007D01000100FD17EDFF93
:1001C40001000100B7170040930670052380D7048F
:1001D400130780FA2380E704010001001376F50178
:1001E400136606042394C700010001000100010006
:1001F400130660046310C502010001002380D704C4
:100204002380E70401000100B72700400947A383C6
:10021400E78089B7010001002380D7042380E70425
:1002240001000100B727004013072005CDB70100E6
:1002340001002380D7042380E7040100010003D7D1
:1002440087001367070C2394E70029B741118146FF
:1002540001468145114506C6052CF3270080A18B74
:100264009386818689CBF327008023A4F1869C4260
:10027400DD9B7390078001000100B717004013074E
:1002840070052380E704130780FA2380E704010044
:10029400010003C76704136717002383E70423805F
:1002A4000704732700809C42A18BD98F7390078029
:1002B40023A4018601000100B240410182808146ED
:1002C400014681451145C922F3270080A18B13877C
:1002D400818689CBF327008023A4F1861C43DD9B10
:1002E4007390078001000100B71700409306700562
:1002F4002380D704930680FA2380D70401000100E9
:10030400FD562396D70223800704F32600801C435E
:10031400A18BD58F7390078023A40186010001006F
:10032400F3270080A18B89CBF327008023A4F186D7
:100334001C43DD9B7390078001000100B717004048
:10034400930670052380D704930680FA2380D7048C
:100354000100010083C6670493E616002383D704D3
:1003640023800704F32600801C43A18BD58F739050
:10037400078023A401860100010001A0BD473305C5
:10038400F50201007D1575FD8280411122C426C24B
:1003940006C6AA84014463179400B24022449244DE
:1003A400410182801305803ED13F0504EDB7B717A4
:1003B4000040130700032388E702854723ACF18834
:1003C40073002030411106C6AD25FDBF2303048010
:1003D40015472303E48001002302A480828083075D
:1003E4006480E3CE07FE2303048082808307648055
:1003F400E3CE07FE03454480828083076480E3CE16
:1004040007FE2302A4808280411126C44AC24EC042
:1004140006C61377F50BAD47AA892E899544630662
:10042400F70019456537653F8D444E854537FD59BD
:10043400FD1463983401B240A24412498249410137
:100444008280135509011375F50F453F2209CDB775
:10045400011126CC06CEB704080051371545BD3727
:10046400713769372AC6A53F32459377150089EB62
:10047400136515001375F50FF240E244056182809F
:10048400FD14E9FC0145CDBF397126DC4ADA4ED8AA
:1004940052D656D45AD25ED006DE62CE66CCB7E7C8
:1004A40000E07D5783AA070022C603AA470023A0C1
:1004B400E71823A2E718B717004013077005238035
:1004C400E704130780FA2380E70483C74704930BE8
:1004D40075FFB684E20793FBFB0F8546AA892E8B32
:1004E400328937240040E187015763FA76016308B3
:1004F400D5008946130700026313D5000157D98F2D
:1005040093F7F70FB71C00402382FC041147230321
:10051400E4801305F00F5D3D094CD135636D7C110A
:10052400B7050700DA9537870700795563F2E504C4
:10053400B3879500636EF702370B0800A94733EBC6
:1005440065016399F90689E48144513D26850DA02E
:10055400DA850945553D05090345F9FFFD14050BE9
:10056400693D81C49377FB0FFDF7DD3569FD7D554A
:10057400B7170040130770052380E704130780FAB8
:100584002380E70403C74704418B2382E704F25026
:10059400B7E700E023A0571123A24711E2543244E5
:1005A4005259C259325AA25A125B825B724CE24CC3
:1005B40021618280A5476395F90685691309F00FC7
:1005C400B3069900B3742B01B6941349F9FFB374BD
:1005D4009900856B33796901416B9387F9FFB3F710
:1005E400270199E363FC340193D94900C147E3E649
:1005F40037FF99BF0569C1697D19D9B71305800D06
:1006040063886901130500026384790113051008E6
:10061400CA85DD3B353D21DD4E99B3843441D9B7DC
:10062400DA852D45D533CA94E30099F205097D3B5B
:10063400A30FA9FED5BF9387F9FF93F7F70F636163
:10064400FC0C83C71C0413073008631FF704370727
:100654000800636BEB04B3079B00B706100063F557
:10066400D704334BEB0089476393F9068980D54956
:10067400E38C04ECDA850945413B11090327C9FFE2
:1006840091472320E48003076480E34E07FE23039D
:100694003481FD17EDFBFD14110B81C49377FB0F1F
:1006A400E9FF7D3371F5E1B5B717004003C757047F
:1006B400B70708001377070219E3B78707007955CE
:1006C400E378FBEA33079B00E3FFE7F855B585477A
:1006D400E382F9F2DA852D45053B9389F4FFE3853E
:1006E40004E6293393F7390091EB8326048003272A
:1006F400090093074900E39AE6E43E89CE84F1BFFA
:10070400B5476396F9001305900BC93135BDB14760
:100714001305B00AE38BF9FE99476391F904B70511
:100724000800B365BB002D45C53181448D4BA149FB
:10073400753963967401832704802320F9008504A6
:10074400E39834FF8327048013172B0163550700B4
:100754002312F900D5BB2322F900FDB39D47639909
:10076400F90281451305B0044531BD442320090035
:1007740023220900FD599D3993F77400CA9703C7D2
:100784000700FD14398D2380A700E39634FF6DBB69
:10079400A1476392F9046D398144630D0B008D47C1
:1007A4009304C0036308FB009304000563048B01F6
:1007B400930440041375C507E30895D819453931E6
:1007C40039390545213126850D3909453D314931F0
:1007D400E31C05D669BB91476399F90013056006CC
:1007E400F536F53E130590090DB7E38F09D4F1549E
:1007F400A9BB19CD91CD09CE81473387F500834636
:1008040007003307F50085072300D700E317F6FE3A
:10081400828019C991C909CA910583A7C5FF110529
:100824007D16232EF5FEC5BF828001C919C62A96FE
:100834000505A30FB5FEE31DA6FE8280814733079D
:10084400F5000307070019E33E8582808507C5BFCD
:1008540001112E8626CAAA84131506019305F004F5
:10086400418122CC06CE32C6EF00B0562A8401C59F
:100874003246A685BD3F2285F2406244D2440561DA
:100884008280854715C18DC105C28147B306F50035
:100894003387F50083C60600034707006398E60024
:1008A4008507E315F6FE85473E8582808147EDBFC7
:1008B4009307F6FFBE952A966313C5008280FD1543
:1008C40083C715000505A30FF5FEFDB7AA870145EB
:1008D40081CF09CE3E96850703C7F7FF6317B7009C
:1008E400E39BC7FE05458280828001458280797141
:1008F400973700009387874422D4804306D626D2B4
:100904004AD04ECE52CC56CA5AC85EC679C0B7C475
:10091400C901014B973900009389C9419384F43785
:10092400173A0000130ACA41973A0000938ACA3B57
:1009340017390000130909458357240095E35C44E3
:10094400631D0B0017370000232AF73E832BC400D6
:100954002285EF0030555E84B9A82326FB00FDB73D
:1009640083A7090082971C443307F5406376F5009A
:10097400032749001D8F2A9763E2E4089737000094
:1009840023AC07368355240003450400973000E068
:10099400E78080515C405844A1CB0C4403264900B5
:1009A400AE97BE8663E4B70063E4C700B386C7406E
:1009B40014C4228B3A8449F0973700009387C732D6
:1009C4009C4B09476372F706F91717370000232574
:1009D400F732B250225492540259F249624AD24A2E
:1009E400424BB24B4561828063170B00973700007E
:1009F40023A6E734A1BF2326EB0089BF03274A02BD
:100A040009CF63EFA7003385A74083A70A01637664
:100A1400F5009737000023A1A72E228B404461BF25
:100A240003274900BA97C5B79737000023A6072CB8
:100A34004DB7411122C4173400001304A42D1C40E7
:100A440006C626C24AC091C782979737000023A3DF
:100A5400072C9737000083C7374C858B97340000E9
:100A64009384444B95C397370000A387074A83C7F1
:100A740074001547637AF700A12B83C77400F51738
:100A84008A07A2979C4382971C4491C38297173983
:100A940000001309692A03270900173600000346DA
:100AA400B6249737000083C7272493961700BA9675
:100AB40083D60600D5CE9737000083C7E72263E3C9
:100AC400C70C97370000238107221C40639D07123F
:100AD4009737000083C7974491CF83C7740093F777
:100AE400F70F89EB97370000A38A0742974001E08C
:100AF400E780208C973700009387C7239C43638447
:100B04000710973700009387E727DC431737000067
:100B14002324F71EE93B9737000093876722DC53B1
:100B2400FDC3173700001307271C184B9737000025
:100B340083C757226369F70C83C77400154763643E
:100B4400F70C9737000083C7A741918BCDEF03269D
:100B540009009736000083C6361963CCD70A2244AD
:100B6400B240924402494101173300E06700837E9A
:100B7400850793F7F70F973600002387F616E3E20D
:100B8400C7F215BF86073E97835507002310070059
:100B940097370000239E071897370000938747175D
:100BA4009C43173500000345251413172500BA97F5
:100BB4009C4382979737000083D787171737000025
:100BC4000347871293C7F7FF7D8D931717000327F9
:100BD40009003E97835707005D8D2310A7009737C0
:100BE400000083C7671091C7850717370000230DDE
:100BF400F70E173700000347270F9737000083C706
:100C0400B70EE370F7ECB24022449244024941012A
:100C14008280139717003297035707006DF78507F3
:100C24002DBFAD6737C70040BD072326F7200F103F
:100C34000000973700009387270BC84F8327872628
:100C4400BD66BD0693C7F7FF99836A052326D7209F
:100C54005D8D82804111B7170040985F3AC6945F5A
:100C64003247E39CE6FE3245410182801305F00FD2
:100C740082800111973700009387C73922CC03A4DF
:100C8400070C26CA06CE2AC42EC6854419E401459B
:100C9400F2406244D2440561828083479100034755
:100CA4001400858B6304F7000044CDB719469305FF
:100CB400A10013052400F136E31895FE0545C9BFCC
:100CC40017370000130707241C439306001094C32E
:100CD40001000100010001001C4323A0070083461A
:100CE400150003482500A2064208C29603480500E1
:100CF400C296034835006208C29694D783465500CD
:100D040003486500A2064208C29603484500C296FD
:100D1400034875006208C296D4D7834695000348F9
:100D2400A500A2064208C29603488500C29603485D
:100D3400B5006208C29694DB8346D5000348E500FB
:100D4400A2064208C2960348C5000345F500C296B0
:100D54006205AA96D4DB83C6150003C52500A20646
:100D64004205AA9603C50500AA9603C53500620587
:100D7400AA9694CF83C6550003C56500A206420512
:100D8400AA9603C54500AA9603C575006205AA96EE
:100D9400D4CF83C6950003C5A500A2064205AA9632
:100DA40003C58500AA9603C5B5006205AA9694D327
:100DB40083C6D50003C5E500A2064205AA9603C56D
:100DC400C50083C5F500AA96E205AE96D4D3D443F4
:100DD400F59AD4C3D44393E61600D4C3944393E65C
:100DE400160094C3BA879443D842058B59E3984EAE
:100DF40001452300E6009843184F2183A300E60031
:100E04009843184F41832301E6009843184F6183A8
:100E1400A301E6009C43D84F2302E600D84F218368
:100E2400A302E600D84F41832303E600D84F618331
:100E3400A303E60098532304E60098532183A304F4
:100E4400E600985341832305E60098536183A30584
:100E5400E600D8532306E600D8532183A306E60010
:100E6400D85341832307E600DC53E183A307F6004C
:100E7400828001008DBF173700001307E708144371
:100E8400411122C49C5E4AC006C6998326C2858B42
:100E94003A84173900001309E906D1CB9C5E9734D4
:100EA40000009384240793F7F7F99CDE17370000BA
:100EB4000347A70693070008631BF700832709006D
:100EC4009C4393F70704173700002308F70483C7EC
:100ED400040093F707049DC397370000938787E5C1
:100EE4009C4382979737000023AEA70283C7040070
:100EF40093F7F70B17370000230EF70083C744005E
:100F040093F707048DE7854717370000A306F7001A
:100F1400973700009387C7019C43096798C7130755
:100F240000FC973600002389E6FED844F8D31C4021
:100F3400985F1183058B09CB985F3D9B98DF05472C
:100F440097360000238AE6FC985F1D83058B11CB3E
:100F5400985F1377F7F798DF854717370000230D5D
:100F6400F7FA83270900D8430583058B19C7D843AB
:100F7400759BD8C3D843799BD8C3B24022449244CA
:100F8400024941018280397106DE16DC1ADA1ED864
:100F94002AD62ED432D236D03ACE3ECC42CA46C815
:100FA40072C676C47AC27EC0F935F250E252525308
:100FB400C2533255A255125682567247E2475248DE
:100FC400C248324EA24E124F824F2161730020302C
:100FD400973700009387C7F59443973700009387AA
:100FE40067F303C70700058B11CB973700002385F0
:100FF40007F297370000A38107F2828003C7170026
:10100400058B65F7F85271FF83C75700DDB71738B2
:101014000000130868EF032708001C5F9583858B85
:10102400D1E709C61C5BBD832300F60085CA83276C
:101034000800985B4607935767016356070093E7D8
:1010440007C0C207C18303970600C207C18709C747
:10105400BA970947B3C7E7022390F60085CD8347C3
:1010640015008DCB9736000083C626EB93F6060455
:101074001387970089478DCA3A950347050085462B
:1010840099471376F7066311D60262076187B94759
:10109400634C0700832708009C5FED838D8B173713
:1010A4000000A30EF7E681473E8582808547EDBFA9
:1010B400411122C406C617340000130464E7184023
:1010C4003DE9AE877453FDFE3E85B2859737000037
:1010D400238307E4973001E0E7802001973700007D
:1010E400938787E29C43B70680009843558F98C343
:1010F400D857719BD8D797370000A38F07E097374D
:101104000000A38907E01C40094798C3144017371F
:101114000000130727E083472700858B89EB83476B
:101124003700858BD9C797370000238707DEB24085
:101134002244410182808D476310F50297370000F5
:10114400938787DC9C43B70680009843558F98C3E8
:10115400D857719BD8D75DBF8547E319F5FA544733
:10116400F977FD17F58F5CC70F1000001C40096765
:1011740098C7130700F817360000230FE6D817376F
:101184000000130767D81043184231830D8B11E711
:1011940013076019F8D3D4C795BF184209463183A1
:1011A4000D8B6315C7001307E043EDB71307E01B6E
:1011B400D5B7FC52ADF3A5BF5D71A2C4A6C22A8403
:1011C400130680022800AE849305100886C6CAC0A0
:1011D4004EDE52DCEFF06FE53545973001E0E780F5
:1011E400E02F17330000130323D2832703009376E1
:1011F400F41F173E0000130EEED823A40700984BEB
:10120400973E0000938ECED2370FFCFF1367F7038F
:1012140098CBF84F130510F8B7020400137707E0D2
:10122400558FF8CF9843F576FD16758F98C398437C
:10123400B7063300930380251377F7E798C39843E1
:1012440011497D1F1377F7E71367071098C3032726
:101254000E008549930F80021C47D58F1CC783A7B6
:101264000E001307900D3400B8CB01479355370097
:10127400A69583C7050013767700B3D7C740858B3F
:10128400E1C38327030083280E00239C07042390D3
:10129400070603A8C8021378D8FF23A6080383A867
:1012A40007001378F70793F808F833E8080123A038
:1012B400070103A847023368580023A2070383A841
:1012C4000E00014823A2780603DA070663074803E1
:1012D40003A80703038A06001358F800620813588A
:1012E400884163580A0103A807031358F8002380B0
:1012F400060103D807061378F80F03AA4806630605
:101304000A0003DA8705E37F49FB03A84702337821
:10131400E80123A2070383870600635CF40003C883
:1013240005003396C9001346F6FF33760601238081
:10133400C5003E8663D3A7002A86131586016185FE
:1013440005071377F70F8506E312F7F3B640264433
:1013540096440649F259625A6161828097360000C8
:10136400938606BD9C42D84713161701635506029F
:10137400984713161701635006027D57B8D71737DD
:10138400000013076796584F050717360000232BF4
:10139400E696116798C798470D83058B1DC31737C9
:1013A4000000034747B713671700173600002304EC
:1013B400E6B6130700F817360000230FE6B42147FA
:1013C40098C79847058B09CF17370000034797B490
:1013D4001367170017360000A30EE6B2054798C737
:1013E40098470983058B09E798470583058B31CF17
:1013F4009847173600001306E6B1173500001305A9
:10140400A5B00983058B6303071018411843318382
:101414000D8B75EBAC4B184E93F505020347170083
:10142400CDCD79EF13077006D8CF034706001367B5
:10143400170017360000230FE6AC114798C7184170
:101444005C57F19B93E717005CD79C42984793162F
:10145400370163D606029736000083C626C3C18AC5
:1014640017370000130707BBC5CE03478707136769
:10147400070297360000238BE6C0056798C7984794
:101484009316270163D10602173700000347C7A844
:101494006207618763570700054797360000238D6D
:1014A400E6A6096798C798479316070163D606020C
:1014B4009736000083C696BD858A17370000130748
:1014C40067B5ADCE0347970713672700973600002B
:1014D400A38EE6BA216798C7828029D7854563150C
:1014E400B7001307B00689B789456315B70013071A
:1014F400F0061DBF8D456315B700130730072DB7E0
:101504001307500715B71307600739BF03473600A1
:101514001367170017360000A30FE69E094739BF6B
:10152400834687070946BD8A6388C6000347870741
:101534008D463D8BE313D7F4114725BF83469707A8
:10154400918AC9DA034797071367870041B739714E
:1015540006DE16DC1ADA1ED82AD62ED432D236D0BB
:101564003ACE3ECC42CA46C872C676C47AC27EC05F
:10157400F533F250E2525253C2533255A255125629
:1015840082567247E2475248C248324EA24E124F28
:10159400824F216173002030973700009387479969
:1015A40098438567938707777CD3973700009387A1
:1015B400679D9C4383A6070913965600635806004B
:1015C40083A6070913966600634406007453FDF26C
:1015D400828071C5AA870145E9C58D07C207C18309
:1015E400F19BC207C18313074003636FF7021737E8
:1015F40000001307E7A10843173700001307C7A02B
:1016040014436398A6021727000013076773185B37
:10161400014541CB4111C20706C60545DD8D029740
:10162400B240014541018280173700001307079E2D
:10163400D9B70357650035E303574500636FF704D3
:10164400B306F7402146637CD6020328050093863F
:1016540087001D8FAA966117172600000356266976
:101664002392E60023A006012393060014C123124B
:10167400F500130786FF97260000239AE6662313D6
:10168400B5009725000083D58566B387F5401727F5
:101694000000231EF7642105828008419DB701459F
:1016A400828082800DC1973700009387679603A3D9
:1016B4000700973700009387279583A80700814682
:1016C4009A8763E31701828003A80700636DF50A14
:1016D400636BA80A13878700E367E5FE03D66700F8
:1016E400216705076317E60003C7019305072388ED
:1016F400E192972500009385255F03D6470003D721
:1017040065002393070032974207418317250000A1
:10171400231FE55C638A6702173500001305058FF4
:1017240008416303F50203D5660019ED83D746002B
:1017340023A0060121073E9621062392C60097277F
:1017440000002396E75AB6879843E30E17F79736B7
:1017540000009386A68B9442E307D7F6835667006E
:10176400BDF283D64700035647001843A106B2963C
:101774002392D70098C383D76500A10717270000D9
:101784002317F7568280BE86C28725BF032785119B
:1017940063020712411122C406C68347C50083456C
:1017A400E5042A8493F7C70F2306F50083469700C0
:1017B4000356C70013958601618563F2C508635B10
:1017C40005060345870093F6F607A304D7000546EC
:1017D40093E627006314C50093E617002306D4009C
:1017E4005C4389075CC3A30AB400032504112E8655
:1017F4004C430905EFE0FFFF83278411034654019E
:10180400D44303D7C700B296118FD4C32396E700FD
:101814008947A30DF400034764039727000083C797
:1018240047536378F7048347C40093E7070123060B
:10183400F40081A093E717002306F4006DB79376B4
:10184400F60F635D050203458700854513E627000F
:101854006314B50013E617002306C400A30AD400DA
:10186400A30407008547A30DF400832784119C4338
:10187400DDF3B240224401454101828093E7170021
:101884002306F400A30AD400A304070003250411CB
:101894004C430905EFE0FFF5832784110346540107
:1018A400D44303D7C700B296118FD4C32396E7005D
:1018B4008D4755BF05458280973700009387478839
:1018C4009C43411122C406C6858B2A84C5EF416519
:1018D400130525F597E001E0E780A02745C5834778
:1018E400A5002315F50083270412BDE72320A412C5
:1018F4002322A41285472311F404232005008347DF
:10190400640154412316F5000347D4002304E50081
:101914000547A304E500172700001307A75F184F26
:101924001385170215811C437D151375F50F9CC291
:101934005C43DCC21C479CC65C47DCC61C4B9CCA8F
:101944005C4BDCCA1C4F9CCE5C4FDCCE19CD93861D
:10195400060213070702C1BF8327441288C38357B3
:1019640024042322A412850779B79727000083D77C
:10197400E76A8507172700002312F76AB24022445A
:10198400410182808347C40023090400054593C7AD
:1019940047002306F400DDB78347850193F7E70F7B
:1019A400D5EF83479501DDEB034625018346C5004A
:1019B40009CA83456503172700000347973963E77E
:1019C400E50013F7060141CF014709C6C18A035751
:1019D400651C81C68356A51C369751C31307C712CD
:1019E400172500000355853AB335A70237460F0083
:1019F400411113060624814622C426C206C67D541C
:101A04003305A702971002E0E78000239727000020
:101A140083C79734B384A700972700009387875F11
:101A240003A787098327070963F387003E841843C4
:101A340075FB972700009387E72F9C438297814784
:101A44006364A400B307A440B2402244B3B7970030
:101A540093C7170092443E854101828081473E85A9
:101A64008280972700009387A74C98437C53FDFFFF
:101A74008280797126D206D622D44AD04ECE52CC58
:101A840056CA5AC85EC68347550303447513AA84CD
:101A94003E941374F40F9307400263F68700130413
:101AA400B4FD1374F40F03AA841383AAC413A38B81
:101AB400841222865285D685971002E0E780401270
:101AC400058915E503CBD41201498149337B6403AD
:101AD400930B50024A865285D685971002E0E78020
:101AE4002010058915C5639169031374F90F238BBD
:101AF4008412B250225492540259F249624AD24A90
:101B0400424BB24B456182808509E20993D98941F0
:101B14000509E31179FDE1BF83278509035605040F
:101B2400797193D60701BD8EC206C182358E1357D3
:101B3400764093575640898B058B5D8F935736407B
:101B4400918B5D8F93571640A18B5D8F9317160071
:101B5400C18B5D8F9317360093F707025D8F931740
:101B640056009355860093F707041E065D8F13767F
:101B7400F60F518F93D7554013D63540118A898B70
:101B8400D18F13D67540D18F13D61540218AD18FAA
:101B940013961500418AD18F1396350013760602E9
:101BA400D18F13965500137606049E05D18F93F5B5
:101BB400F50FCD8FA20745465D8F3307C70222D4A8
:101BC4002A8426D252CC56CA032A8413832AC413E5
:101BD4005AC806D636974207418393577740135520
:101BE40057400989858BC98F135537401189C98F8F
:101BF400135517402189C98F131517004189C98FBF
:101C04001315370013750502C98F13155700935523
:101C14008700137505041E07C98F1377F70FD98F33
:101C240013D5354013D755401189098B498F13D5E6
:101C34007540498F13D515402189498F1395150097
:101C44004189498F1395350013750502498F139502
:101C54005500137505049E05498F93F5F50F4D8FB7
:101C64002207D98FB387C7024AD04ECE5EC662C45C
:101C7400B697C207C18313D7774013D55740098954
:101C8400058B498F13D537401189498F13D51740D8
:101C94002189498F139517004189498F139537007E
:101CA40013750502498F1395570093D58700137553
:101CB40005049E07498F93F7F70FD98F13D5354045
:101CC40013D755401189098B498F13D57540498F16
:101CD40013D515402189498F139515004189498FE2
:101CE4001395350013750502498F13955500137527
:101CF40005049E05498F93F5F50F4D8F2207D98F63
:101D0400B387C702130650025285D685B697BD8E97
:101D140093940601C18033F6C402137BF60F971027
:101D240002E0E780E0EB05890DED8347D412014919
:101D34008149B3849702130C5002C1804A865285AC
:101D4400D685971002E0E780A0E90589937BF90F17
:101D540011C563863403850993F9F90F0509E31F57
:101D640089FD230B6413B250225492540259F24950
:101D7400624AD24A424BB24B224C456182805E8B0E
:101D8400CDB7797122D406D683C735002E842316A5
:101D94000100A307F10083C74500100802C0230710
:101DA400F10083C755008A8502C2A306F10002C46C
:101DB40002C802CA02CC02CEEFE09FF00347F10151
:101DC4008347040001456310F7020347E101834799
:101DD400140001456319F7000345D101834724002A
:101DE4001D8D13351500B2502254456182800111B6
:101DF400972700009387072222CC03A4870C26CAC6
:101E04004AC84EC606CEAA8413092500854915C0C2
:101E140083C7140003473400858B6304F700405CD8
:101E2400FDB71946930544004A85EFE09FA5E318E2
:101E340035FF2285F2406244D2444249B2490561E9
:101E440082804111972700009387C71C22C403A4F2
:101E5400870C26C24AC006C693042500054901E83A
:101E64002285B24022449244024941018280A685DF
:101E74001305A4023937E30525FF405CCDB74111B2
:101E8400972700009387071922C403A4870C26C24E
:101E94004AC006C693042500054901E82285B240DC
:101EA40022449244024941018280A6851305A4017B
:0C1EB400C93DE30525FF405CCDB70000F0
:101EC00097110020938101C4176100201301811331
:101ED0001305400097E5FF1F9385C51217060020E4
:101EE000130606FE63FAC5008322050023A05500F1
:101EF00011059105E3EAC5FE17350200130505EF4C
:101F0000970500209385C5FB1386818663FAC5007B
:101F10008322050023A0550011059105E3EAC5FEC3
:101F200013858186972500209385C5226377B500A8
:101F3000232005001105E36DB5FEFD42739002BC40
:101F40008D4273904280930280087390023097E232
:101F5000FF1F9382220B93E232007390523097223C
:101F60000000938222B273901234730020303D43FC
:101F70002A876373C3029377F700BDEFADE59376CD
:101F800006FF3D8ABA960CC34CC30CC74CC7410729
:101F9000E36BD7FE11E28280B306C3408A06970244
:101FA000000096966780A6002307B700A306B70037
:101FB0002306B700A305B7002305B700A304B700A5
:101FC0002304B700A303B7002303B700A302B7009D
:101FD0002302B700A301B7002301B700A300B70095
:101FE0002300B700828093F5F50F93968500D58D79
:101FF00093960501D58D61B793962700970200004F
:1020000096968682E78086FA9680C1171D8F3E9647
:10201000E374C3F8A5B7B717004003C77705137774
:10202000E70FA38BE704130700F8A38DE7043D47F0
:10203000238CE70413075003A38CE7048280F37614
:102040000480B717004003C7E7020D891377C70F55
:10205000498F01000100130670052380C704130691
:1020600080FA2380C704010001002387E702238050
:102070000704010001007390068082805971E2C458
:1020800086D6A2D4A6D2CAD0CECED2CCD6CADAC8F0
:10209000DEC6E6C2EAC06EDE2A8C02D6EF009032BF
:1020A000F3270080A18B138D818691CBF3270080CD
:1020B00023A4F18683270D00DD9B73900780010028
:1020C0000100B7170040130770052380E7041307CA
:1020D00080FA2380E7040100010003C7F7021377A9
:1020E000770FA387E70203C7F70213678700A38769
:1020F000E702238007047327008083270D00A18B4C
:10210000D98F7390078023A4018601000100F32773
:102110000080A18B91CBF327008023A4F186832735
:102120000D00DD9B7390078001000100B717004090
:10213000130770052380E704130780FA2380E70460
:102140000100010003C7E7021377C70F2387E702E7
:1021500003C7E702136717002387E70223800704FA
:102160007327008083270D00A18BD98F7390078080
:1021700023A4018601000100130780C13347E50253
:102180009169938709E8130650023D69B7440F002F
:1021900093840424856B130BA004014A814A130421
:1021A0007005FD19B347F5023307C7023EC2930716
:1021B00009A61309803E3347F7023AC43347250383
:1021C00005493319890113593940334595029384E0
:1021D0000BFAB3948401811B3306C702B346F6029F
:1021E0003309E90236C6330B670313076055B3049E
:1021F0009502130500103309E902B346FB02130BE5
:1022000080FAB3C4A40236C8B347F90293963400E7
:102210003719004036CC930409043ECA7326008067
:10222000218A11CA7326008023A4C18603260D00CB
:102230005D9A7310068001000100930770052380EA
:10224000F400238064010100010003463905137680
:10225000860FA309C9040346390513661600A309AE
:10226000C904238004007325008003260D00218A01
:10227000498E7310068023A4018601000100916C31
:10228000E17D73260080218A11CA7326008023A471
:10229000C18603260D005D9A7310068001000100BF
:1022A000930770052380F40023806401010001007E
:1022B0000346390513660602A309C9040356090536
:1022C000336696012318C904035609053366B6011F
:1022D000420641822318C90423800400732500802C
:1022E00003260D00218A498E7310068023A40186DF
:1022F000010001000346390513760602630706163E
:1023000003463905218A6DDE6810EF00D00F732671
:102310000080218A11CA7326008023A4C186032667
:102320000D005D9A73100680010001002380840077
:102330002380640101000100034639051376F60D80
:10234000A309C9040346390513660602A309C90493
:1023500003560905336696012318C9040356090577
:102360003366B601420641822318C9042380040063
:102370007325008003260D00218A498E7310068084
:1023800023A40186010001000346390513760602E5
:102390006309061003463905218A6DFE97E0FF1F89
:1023A000E78060CF2A8632CE97E0FF1FE780A0CE7D
:1023B0007246E30AC5FE0356090532553366960197
:1023C0002318C904EF00F00503463905218A6DDEA4
:1023D0000355090503462905924733F5A9003386BD
:1023E000C90232951D8DA24763D5A700B247634647
:1023F000F50E09466365560FC247850A1316150088
:1024000093FAFA0F3346F6026354A03A05060945DB
:102410003346A60273250080218911C973250080E7
:1024200023A4A18603250D005D997310058001008A
:102430000100238084002380640101000100035512
:10244000C9022A96420641822316C902238004004B
:102450007325008003260D00218A498E73100680A3
:1024600023A401860100010029BD73260080218A72
:1024700011CA7326008023A4C18603260D005D9A2D
:102480007310068001000100238084002380640112
:10249000010001000346390513660602A309C904B9
:1024A00025BD73260080218A11CA7326008023A4CB
:1024B000C18603260D005D9A73100680010001009D
:1024C0002380840023806401010001000346390554
:1024D00013660602A309C90451BDE38F0AF07326EF
:1024E0000080218A11CA7326008023A4C186032696
:1024F0000D005D9A731006800100010023808400A6
:102500002380640101000100034639051375FC0FA7
:102510001376860FA309C90403463905498EA3091A
:10252000C904238004007328008003260D00218A3B
:10253000336606017310068023A4018601000100A2
:10254000034639051D8A631A862773260080218A6F
:1025500011CA7326008023A4C18603260D005D9A4C
:102560007310068001000100238084002380640131
:10257000010001000346390511651376F60DA30924
:10258000C9040346390513660602A309C9040356A4
:102590000905498E2318C904035609052165498E8A
:1025A0002318C904238004007325008003260D002E
:1025B000218A498E7310068023A401860100010040
:1025C00003463905137606026301062203463905E0
:1025D000218A6DDE6810052D73260080218A11CABC
:1025E0007326008023A4C18603260D005D9A731014
:1025F0000680010001002380840023806401010023
:1026000001000346390511651376F60DA309C904C7
:102610000346390513660602A309C90403560905D2
:10262000498E2318C904035609052165498E2318CC
:10263000C904238004007325008003260D00218A2D
:10264000498E7310068023A4018601000100034611
:102650003905137606026306061C03463905218AEE
:102660006DFE97E0FF1FE78000A3AA8C97E0FF1F95
:10267000E78060A2E30C95FF035609051165498EBA
:1026800032552318C904712B03463905218A6DDEA2
:1026900073260080218A1385818609CA73260080EB
:1026A00023A4C18610415D9A7310068001000100C9
:1026B0002380840023806401010001000346390562
:1026C0001376F60DA309C904238004007328008043
:1026D0001041218A336606017310068023A4018607
:1026E000010001000358090503462905E24733F8B4
:1026F00009013386C90232983308F8401306800C6A
:102700003306C802D2473346F60263580015050661
:102710000948334606036357C0140358C902930897
:10272000F00F13585800329863DC081F094663798C
:102730004619F3270080A18B89CBF327008023A4BF
:10274000F1861C41DD9B7390078001000100371763
:102750000040930770052300F704930780FA2300D5
:10276000F704010001008356C70289678117D58FDE
:10277000C207C1832316F7022300070473270080D2
:102780001C41A18BD98F7390078023A4018601007F
:102790000100B650265496540659F649664AD64A60
:1027A000464BB64B264C964C064DF25D65618280D9
:1027B0007D1609453346A602B1B973260080218AE9
:1027C00011CA7326008023A4C18603260D005D9ADA
:1027D00073100680010001002380840023806401BF
:1027E000010001000346390515BB73260080218ACC
:1027F00011CA7326008023A4C18603260D005D9AAA
:10280000731006800100010023808400238064018E
:10281000010001000346390513660602A309C90435
:1028200051B373260080218A11CA7326008023A425
:10283000C18603260D005D9A731006800100010019
:1028400023808400238064010100010003463905D0
:1028500013660602A309C904E9BB7D16094833467D
:10286000060355BD55CE0358C902B308C0401358DE
:1028700058006357180B094663744605F327008018
:10288000A18B89CBF327008023A4F1861C41DD9B1B
:102890007390078001000100B7170040130770050F
:1028A0002380E704130780FA2380E7040100010076
:1028B00003D7C7027D8B2396E702238007047DBDE3
:1028C00073260080218A09CA7326008023A4C1864A
:1028D00010415D9A7310068001000100238084007E
:1028E00023806401010001000356C9021376F60F2C
:1028F00033667601420641822316C9022380040012
:10290000732800801041218A336606017310068007
:1029100023A4018601000100050A137AFA0FFDB80D
:10292000F3270080A18B89CBF327008023A4F186B5
:102930001C41DD9B7390078001000100B717004028
:10294000130770052380E704130780FA2380E70448
:102950000100010003D7C70216063A9642064182DB
:102960002396C70299BF41112A83014E930E407EE0
:10297000130F0019930F400663E56E1093080019BA
:1029800013034006B3781503854E0D4FA14F3373E3
:1029900065020D891335150063EFBE101308F6FFAD
:1029A000794672984208135808013307C70213D6B4
:1029B0001700BE0732976146B3F6C6021306807051
:1029C000B386C6023697A166F58F42075D8FF37511
:1029D0000480B716004083C7F60293F70708A307E1
:1029E000F1000346F10083C7F60293F70708E3946A
:1029F000C7FE8347F100B716004093F7F70F6386D1
:102A0000071001000100B7170040930670052380EE
:102A1000D704930680FA2380D7040100010023AA7B
:102A2000070383C6170393E60608A388D70223800B
:102A300007040100010011667D16D45B03A8C703DB
:102A400013854703B3C60601F18EE5FA01000100C4
:102A5000930670052380D704930680FA2380D70459
:102A60000100010018C103C7170313670704A388F7
:102A7000E7022380070401000100739005804101F3
:102A800082807D133368E3039308E016630E080029
:102A90003368F3039308D016630808009378330073
:102AA00093B818009388D81633081E01131E080126
:102AB000135E0E01D1B56393E503054863860800F4
:102AC0000148630303002A8871087298FD15131EDC
:102AD0000801C205135E0E01C1817DBD13F815000A
:102AE00063F4BF007908D5B713381800E5BF83C772
:102AF000F60293F70708A307F1000346F10083C726
:102B0000F60293F70708E394C7FE8347F10093F7B3
:102B1000F70FF1DFFDB5F3760480914763E2B70666
:102B200017270200130707808A05BA959C41BA97B8
:102B30008287B717004003A7470B1345F5FF698F3E
:102B400023AAE70A03A7070B698F23A8E70A03A7AD
:102B5000070A798D23A0A70A25A0B717004003A66E
:102B6000470B1347F5FF798E23AAC70A03A6070B65
:102B7000518D23A8A70A03A6070A718F23A0E70A8D
:102B8000739006808280B717004003A7470B498FD8
:102B900023AAE70A03A7070B1345F5FF75B7B71775
:102BA000004003A6470B1347F5FF718F23AAE70ADE
:102BB00003A7070A598D79BFB717004003A7470B32
:102BC000498FEDB7B717004003D587004205418113
:102BD0009377050491EB9377F5013755E8011305D9
:102BE00005803345F50282809377050C13070004B6
:102BF0006397E7009377F50137459C1CCDB72165B6
:102C0000130505D0828037E700E01C435443A183BD
:102C1000E206D58F1CC1FD572320F7182322F71891
:102C2000828013178500B7E700E023A0E7106181D9
:102C300023A2A7108280B7F700E08847CC478280A4
:102C4000814737370040A14663C4C7003285828080
:102C50000345B740E38EA6FE3385F5000345050026
:102C600085072304A740CDB797F7FF1F9387876990
:102C70009C43171700201307E74D3E95636EE50050
:102C800017570020130707186368A70017F7FF1FDF
:102C9000232AA7663E858280FD57EDBF411122C4DD
:102CA00006C62A8405372947B307E502B2408D835B
:102CB000B3D7870222449507B3D7E70237370040DE
:102CC000C207C1832316F74041018280716541111B
:102CD0001305052006C6D937B7370040130770F82B
:102CE0002381E7400D47A381E74013070004A38039
:102CF000E74005472387E740B24041018280CC414D
:102D0000411106C6328503C6150083C5050022069B
:102D10004D8E42068D654186138875A2630C060FA1
:102D20006348C804138845A26306060B634AC800BB
:102D3000938535A26309B60623900600294679A03B
:102D4000138855A26308060B938565A2E316B6FEA9
:102D5000C1451D4663ECE5064546198E63F3C70081
:102D60003E862390C600971502009385E55D89A8ED
:102D7000138895A26300060F634E060B1388A5A265
:102D8000630A060F938505A5E318B6FA99451D4613
:102D900063EEE502198E63F3C7003E862390C600FA
:102DA0009385C18031A89D451D4663E1E50221461A
:102DB000198E63F3C7003E862390C6009385C186B3
:102DC000BA9597E0FF1FE78000A30146B240328525
:102DD00041018280AD451D46E3EAE5FE3146198E8C
:102DE00063F3C7003E862390C600971502009385C3
:102DF0006559F9B7B1451D46E3EAE5FC3546198E3C
:102E000063F3C7003E862390C600971502009385A2
:102E100065587DB7C1451D46E3EAE5FA4546198E7A
:102E200063F3C7003E862390C60097150200938582
:102E3000E55279B7C1451D46E3EAE5F84546198EE6
:102E400063F3C7003E862390C60097150200938562
:102E50006555BDB7C1451D46E3EAE5F64546198E01
:102E600063F3C7003E862390C60097150200938542
:102E70002550B9B7B5451D46E3EAE5F43946198E44
:102E800063F3C7003E862390C60097150200938522
:102E9000A54A3DB797F6FF1F938686154146CD4557
:102EA00017F5FF1F1305C5016F80204D2D453DEF20
:102EB00003C5050009476317E5063285D041411176
:102EC00006C6034716000346060041682207518FD5
:102ED000130628FE6308C7026369E600051863034A
:102EE00007032390060029451DA8130648FE630B1F
:102EF000C7001518E31707FF15473E866377F700ED
:102F0000154621A03E8691C30546CC452390C600B8
:102F10004206418297E0FF1FE780E08D0145B24005
:102F2000410182802390060005458280828083C70C
:102F3000850093F70702E1E3411106C622C426C2C9
:102F40004AC003C9050009432E888547631B6902EF
:102F500003A345003284B684834713000343030070
:102F6000A207B3E767004163130E13FE6382C70332
:102F70000D13638B67040D6813082890638507079A
:102F8000A947B2402244924402493E8541018280D1
:102F9000AD4765FB0547B547E365D7FE0325C80088
:102FA0000546A28597E0FF1FE780E08401499387EB
:102FB00001899843814771D7184361D72686A28536
:102FC0004A850297814775BFAD4745FF0547B5471D
:102FD000E369D7FA0325C8000546A28597E0FF1FDD
:102FE000E7806081E9B72244B240924402498547B4
:102FF00041016F60E07AA1473E8582804167791781
:10300000630CE502411122C406C685472A84639AEF
:10301000F50022852244B2409385418841016F80AA
:10302000A04089476396F5008545EFA0A07B75D148
:10303000B2402244410182808280411122C42A840C
:103040004165938541887D1506C6EF80E03D1705F3
:1030500000001305E5FA0588EFA0007005C02244C2
:10306000B24097F6FF1F9386660A4146C54517F59D
:10307000FF1F1305A5F841016F802030B2402244A4
:1030800001454101828009C523A8A18801458280AC
:10309000454582801147636EA70697160200938606
:1030A000A6310A0536951841411106C63697AE87F6
:1030B000B285028705476145639AE7000546138597
:1030C000418797D0FF1FE78000730145B24041015F
:1030D000828005476145E39BE7FE054613858187AE
:1030E000CDB705476145E393E7FE05461385C187E4
:1030F000C9BF05476145E39BE7FC05461385018889
:10310000C9B715476145E393E7FC154613858188E8
:103110004DBF09458280411122C42E849385418888
:1031200026C206C6AA84EF606062058915C197F7BA
:10313000FF1F9387A7EC83D7A70BA285B24023106C
:10314000F400224426859244014641016F70803C80
:10315000B2402244924449454101828011456FE0CA
:10316000FFF1411193962500AA852D4506C697D0FB
:10317000FF1FE780A031B24001454101828041112B
:1031800026C29394250022C44AC02A843289A68686
:10319000AA850146254506C697D0FF1FE780002F68
:1031A000A6864A86A285294597D0FF1FE780002E74
:1031B000B2402244924402490145410182800111FA
:1031C00022CC06CE3714004026CA4AC84EC652C486
:1031D00083447405034AB40583498405034994056F
:1031E000EFE07FE38347A40593F4F40F137AFA0F1B
:1031F00093E71700230DF40493F9F90F1379F90FEE
:10320000B717004003C7A705058B6DFF03D5C7059A
:10321000A38D4705238C3705A38C2705A38B970423
:10322000F2406244D2444249B249224A0561828056
:1032300041119397050122C406C6C1872E8463DD20
:103240000700EF00301219C1EF00B00A2165218D8F
:10325000B24022444101828093F7150013C5150046
:10326000E5FB9397250163D00702EF10C155FD35AB
:1032700037F60200130606E0896503C54189EF00B1
:10328000705A0965E9B7939715010145E3D207FC28
:103290001715020013050518EFF0517013060064AE
:1032A000916503C54189EF00F05711654DB71D7158
:1032B00049469715020093856511171502001305FD
:1032C000255686CE97D0FF1FE780E05B01E91715F2
:1032D00002001305E510EFF0716C01A0B7F600E0F5
:1032E000795798CAFD57DCCA0567B7E700E023A005
:1032F000E7101306F00290C223A0E71801000100B6
:103300001306C0038145480897D0FF1FE78020526D
:1033100097F7FF1F938747183ECA896793870780EF
:10332000231CF100B5472304F102A167938707E04E
:103330003ECEB7070105938707103ED0ED47231215
:10334000F10285472303F102970700009387A7E165
:10335000BEC4970700009387C7E2BEC68567938700
:1033600017D02315F102970700009387078D3EDAE7
:10337000B7F50700970700009387A7E43EDE814674
:10338000970700009387C7DD7000E1051945BEC0AF
:1033900097D0FF1FE780800F58088147994670003B
:1033A0003E960346060085070507A30CC700E39871
:1033B000D7FED24791C70357810185676373F70032
:1033C00001A04808EF10A01FAA8501C91715020027
:1033D00013054502EFF0F14A01A0F6402561828015
:1033E0004111170500001305E5E406C622C4EF10DD
:1033F0004019138441892300A400192803450400BF
:103400002244B24013060032896541016F009041A9
:10341000411106C6F3270080A18B1387818689CBD3
:10342000F327008023A4F1861C43DD9B7390078063
:1034300001000100B7170040930670052380D704F0
:10344000930680FA2380D7040100010083C6F702A7
:1034500093F6A60FA387D70223800704F3260080E4
:103460001C43A18BD58F7390078023A40186010094
:103470000100F3270080A18B89CBF327008023A4D0
:10348000F1861C43DD9B7390078001000100B71794
:103490000040930670052380D704930680FA2380AA
:1034A000D7040100010083C6F70293E62600A38734
:1034B000D70223800704F32600801C43A18BD58FFD
:1034C0007390078023A40186010001000545EFE009
:1034D0001FB769311305407E814701478146054684
:1034E0008545EFF04FC8B240014541016F10C04122
:1034F0002A86B305B040171502001305A5FD6FF02D
:103500005138011106CE19C589476301F502F24011
:1035100005618280680097D0FF1FE780C02D1715D6
:10352000020013052508EFF07147D5B7680097D062
:10353000FF1FE780402C1715020013056508E5B74B
:1035400083D7418A6390A7022393B18A2394C18AC7
:103550002395D18A2E86171502001305A5F5BE8581
:103560006FF0313217150200130545F66FF0114365
:1035700003574500011106CE83D7418A631FF70226
:10358000C167F917894503C5018223A2F18A23A4E3
:10359000018AEF00304B914503C50182EF00904A4C
:1035A00085471306F100854513055030A307F10048
:1035B000EF60D15BF24005618280171502001305B0
:1035C000E5F0EFF0B13DFDB73D897D15954763E42A
:1035D000A71617170200130727E40A053A951C419E
:1035E000411122C406C6BA972E848287171502009D
:1035F0001305C5EF2244B24041016FF0313A83C751
:10360000250019476391E7022E859D3783456400A5
:1036100017150200130585EEEFF0B126171502000D
:10362000130585EFC1BF0D47E38AE7FEB240224490
:103630004101828003C725009547E319F7FEC16762
:1036400003D7418AF91703D5A500630FF700EF7080
:10365000010417150200130525EDEFF0313417159D
:1036600002001305E5EE79B72392A18A83D7E5001E
:103670001306006403C501822393F18A83D70501F1
:103680002394F18A83D7250189452395F18ADD4763
:10369000A385F182EF001019096613060690A14573
:1036A00003C50182EF0010180566130606C8914590
:1036B00003C50182EF0010170356E4008355A400F0
:1036C00017150200130585E7EFF0B11B49BF03C7CB
:1036D00025008D4717150200130545E8E318F7F498
:1036E00011BF83C5250091476397F50017150200A8
:1036F000130545E801B79947639FF50022858D3D85
:103700008345640017150200130545DF2244B240CB
:1037100041016FF011179547639AF5008347140034
:10372000F1F7171502001305A5E6E9B51715020014
:10373000130585E6E1BF828001119397050126CA32
:1037400006CE22CCC187AE8463D0070A03C50182AE
:1037500011292A8439C5834705001307000B6384A8
:10376000E7061307000D639CE702834725004547E2
:103770006380E70465476394E7020348A500834735
:103780009500034785008346750003466500834521
:103790005500171502001305A5C9EFF0910E2285FB
:1037A000892E2165258DF2406244D24405618280D4
:1037B000034665008345750017150200130545CAC9
:1037C000EFF0310CE9BF034745009307F007E3181A
:1037D000F7FC8355850017150200130525CAA3853C
:1037E000B182EFF0110A65BF93F7150091CF17F67C
:1037F000FF1F1306A6989385819803C50182EF6089
:10380000310313C5140045B793F72500ADCB13065C
:103810000064894503C50182EF00D000930780F85A
:103820002302F10003C7B1828D4763EBE700171550
:1038300002001305E5C5EFF0711613C52400A5B706
:103840008547014781460546ED4503D5418A231545
:10385000F100EF50102A2AC66DD10356A1004C008A
:1038600097D0FF1FE78020F92C0003D5418AEFF0A5
:103870009F8A61D5ED452800EF50703F7DBF93F7DB
:10388000850085C383C7018213074006814613065E
:103890004006994503D5418AEF60E17213C5840063
:1038A00019B793F705019DC301478946094681452C
:1038B00003D5418AEF60F15FAA8517150200130551
:1038C00025BEEFF0017C13C50401F1BD93F745005F
:1038D0000145E38A07EC03D5418AEF60115B056679
:1038E000130606C8914503C50182EF00A07313C5F6
:1038F000440055BD797117050000130525E406D66F
:1039000022D426D2EF00F0479384018299470544E0
:103910002380A400231AF100100893074006854570
:1039200013055030231CF10023088100EF6011249F
:1039300017F6FF1F1306C686F14513057030EF60BA
:10394000F122138641829D4513056030EF601122FC
:103950005008894513051031EF6051213008894521
:1039600013052031EF609120930500050D45EF20F0
:10397000F025930500051145EF2050258545794533
:10398000EF20D024300891451305704023048100B6
:10399000230681002308810002CC230A0100EF5096
:1039A00081653000854513050040EF50C16470000B
:1039B000854513051040EF500164500885451305F7
:1039C0002040EF5041631008854513055040EF50EB
:1039D00081627D55EF50405A7D55EF70D021EFF058
:1039E0006FCB7D55EFF06FE517E6FF1F1306C67925
:1039F000D5450145EF50E04689472306F1008D4744
:103A00002308F1009147230AF10093870186984328
:103A100083C747003000854501453ACC230EF100AD
:103A200023048100EFF00FE7700085450545EFF0B6
:103A30006FE6100885450945EFF0CFE5500885454C
:103A40000D45EFF02FE5300895451145EFF08FE477
:103A5000C1671387418AF9171CC323220700138506
:103A6000C181EFF04FE21385C189EF40A13003C55A
:103A7000040085450529B250225492544561828044
:103A800041111305800406C697C0FF1FE7808061BF
:103A9000B7170040130700209386870A2FA7E64038
:103AA00083A7870A8D4513050020EFF0CF86EFF03E
:103AB000EFA1171502001305A5D6EFF0216EEFF068
:103AC0000FFFEFF0FF91EF60113F2D3597D0FF1FF3
:103AD000E780808F23AC05FE1C4191E701000100C7
:103AE0000CC18280BA8703A787FF6DFF23ACB7FEA6
:103AF00082801DC18346E5FF1307F00F9147639E47
:103B0000E600411106C697E0FF1FE780E0B9B2402A
:103B100081473E854101828095473E85828001E94B
:103B2000014582800145B240224441018280956571
:103B30004111938505D022C4C98D2A842105C2056F
:103B40004205C181418106C697E0FF1FE780A0A81A
:103B500071D9FD5723200500231285002303F500AA
:103B60002105D1B7170700201307C7171C434111C0
:103B700022C426C24AC006C601440149BA8489E764
:103B8000A165C9251DC401A803C7E7FF631AA702E1
:103B90000DCCA165012E9840832784FF6319E402B0
:103BA000170700202320F714FD57232C04FE230FB2
:103BB000F4FE2285B24022449244024941018280AF
:103BC00011E03E8983A787FF5DBF3E84E5BF232CBC
:103BD000F9FED9BFB1CD411122C406C62A84970788
:103BE000002083C777102E856375F400894763E84A
:103BF000870001370D45B24022444101828083A7EE
:103C000085FF99E703C7E5FF9307F00F6305F7000A
:103C1000CD351545CDB7238F85FE1705002013053B
:103C2000650C4D3D22852244B240A16541019DAC09
:103C3000154582809707002023A6070A82809707F0
:103C400000209387A70F9C4399E33E85828003D78A
:103C500027006316B70003C70700E308A7FEDC4789
:103C6000E5B7C9C1797122D406D626D24AD04ECE44
:103C700001444147B3D78540858BA5C31205314721
:103C800022953305E502970700209387270F03A9A4
:103C900007008544B3948400C204C180BE892A9978
:103CA0000327090011C7032549002EC60297B24514
:103CB00031473304E40283A709003E941C4489E79A
:103CC0002320090023220900B2502254A58D025955
:103CD0009254F2492E85456182800504E31CE4F884
:103CE0008144DDB72E85828041111397050122C4DE
:103CF00006C626C24AC041872E84635E07009D35F2
:103D000011C1C53BA1673D8C2285B240224492443B
:103D1000024941018280EDD9AA8701474146B35645
:103D2000E440858A8DCE9207BA97B146B387D70211
:103D3000970600209386860403A906008544B39461
:103D4000E400C204C1803E9983270900032549008D
:103D500082972320090023220900258C75B70507C7
:103D6000E31FC7FA8144D5BF97070020938747FD1B
:103D70009C53411122C406C61384C18299C78297FD
:103D80001C403E9523A6A18239A097070020938767
:103D900067FA9C43EDF70840B74703009387D73F86
:103DA0003305F502B7A72600938737ECB2402244CB
:103DB0003E9523A6A182410182807DC19707002004
:103DC000938747F79C43797122D426D24AD04ECEAE
:103DD00052CC56CA5AC806D65EC63A8AB689328BC3
:103DE000AE8A2A89829797070020938727F99843FC
:103DF000BE840144B146C147B30BD40233067701F8
:103E0000104251EAC165938505F0414597D0FF1FE7
:103E1000E780607C1DE597070020938767F29C5B35
:103E20002D4589C71145814582972D45B2502254B1
:103E300092540259F249624AD24A424BB24B45610E
:103E4000828097070020938767EF984329E39707BD
:103E5000002023A5A7EE230005009C40054733174B
:103E6000870023260500232465012311E500232272
:103E70004501DE9723A0270123A2570123A4470170
:103E80000145E38509FA238089004DB73E875C47E9
:103E9000F5FF48C7C9B70504E310F4F6214579B723
:103EA000094582809707002083C717E46371F502F4
:103EB00017070020130747E89317150008433E959E
:103EC00083570500DD8D2310B500014582800D4527
:103ED00082809707002083C737E16373F5021707D5
:103EE0000020130767E593171500084393C5F5FFF6
:103EF0003E9583570500FD8D2310B5000145828056
:103F00000D458280130705FF1377F70FFD4763E91F
:103F1000E70AB146B306D50297070020938707E664
:103F2000984389473697184349CF011122CC4EC692
:103F30000544935945003D893315A4001314050128
:103F4000418026CA4E85AE84A2854AC806CEC539B0
:103F50002A89814731CDA2854E85A53F970700204C
:103F6000938747DD9C4382979707002083D707E21A
:103F7000338797022A84814613060064B3B79702F9
:103F800013050732B335E500BE95EFE0B14AB3073C
:103F90008500970600209386E6DE3E87D44263E4E0
:103FA000A70063E4D7003387D7402324E900814783
:103FB000F2406244D2444249B2493E850561828062
:103FC00089473E858280011126CA06CE22CC4AC886
:103FD0004EC6BD47894463EFA70231473307E50268
:103FE00097070020938787D99C438944BA979C43BD
:103FF00095C305443314A400420441802E89014531
:10400000A2853539AA89814411C5A2850145D135DA
:1040100023A42901F240624426854249D244B24990
:10402000056182809707002083C717CC6364F50081
:10403000014582800111970700209387A7CF56C2C0
:1040400083AA070006CE22CC26CA4AC84EC652C44E
:10405000638D0A0A170A0020130ACAD283244A0071
:10406000B74736FE938707C8AE899705002083D5EA
:10407000E5D1BE94B387C5022A8432898146B3B59F
:10408000C50213850732B337F50013060064BE95E9
:10409000EFE0513A63EBA406829A9705002083D59E
:1040A000E5CEB3872503AA84130600648146B3B521
:1040B000250313850732B337F500BE95EFE091373E
:1040C000B3079500BE8403274A0063E4A70063E4B6
:1040D000E700B384E740CE852285953601C504C547
:1040E00005452DA0936504F0C205C181414597D0D7
:1040F000FF1FE780404E05E597070020938747C4E0
:104100009C5B81C7A285114582970145F2406244BC
:10411000D2444249B249224A924A056182809707B5
:1041200000209387A7C19C439DE39707002023A706
:10413000A7C085472326050004C5231135012300A8
:104140008500A300F5002322050059BFBA87D84790
:1041500075FFC8C7F9BF59C9797122D426D24AD090
:104160004ECE52CC56CA5EC662C466C206D65AC885
:104170003689328AAE89AA844144314C970A00209C
:10418000938ACABF854C930B0003330B840303A7A8
:104190000A005A971C43B1E79375F400B395BC002D
:1041A00013554440C2055286C1811375F50F9D3DDC
:1041B0000DC983A70A000145DA9784C323A23701FA
:1041C0006304090023008900B2502254925402591A
:1041D000F249624AD24A424BB24B224C924C456160
:1041E00082800504E31374FB2145F9BF09458280F1
:1041F000411122C426C24AC006C62A842E89B2842E
:104200001535CA852285253C05CD9705002083D527
:10421000E5B7B38795022A84130600648146B3B5D7
:10422000950213850732B337F500BE95EFE0912074
:1042300048C00145B2402244924402494101828073
:104240002145CDBF411122C426C24AC006C62A89D3
:104250002E84EFF0DF9EAA8419C123110500A285E8
:104260004A8585399707002083C707A8639B2701E4
:104270009707002083D7C7AB5D8C97070020239951
:1042800087AA014591E01945B2402244924402496F
:10429000410182809307F00263E8A7044111B1470E
:1042A00022C43304F50226C297040020938404AD8F
:1042B0009C4006C6A297984389470DC39377F500A3
:1042C0008545B395F500C205C1811181A53F9C408C
:1042D000A29723A0070023A207008147B2402244EF
:1042E00092443E854101828089473E85828041110A
:1042F00006C622C4EFF0BF9411E50145B240224446
:1043000041018280970700209387C7A29C43004504
:104310008297970700209387E7A66368A402D84393
:10432000B74636FE938606C83305A4403697E37633
:10433000E5FC13070064B335E50203D68700814628
:104340003305E502EFE0110F55BFD8433A94C1BFE2
:10435000411122C426C2170400201304A4A297040A
:1043600000209384649894485840970700209387CE
:10437000679C06C69C436393E60882975440B74700
:1043800036FE938707C8B6973387A7003A856364DC
:10439000F7006364D7003305D74097040020938467
:1043A00064B79C4C81CF970700209387A7BD9443A7
:1043B0003707CDFF7D179C46F98F9CC611E1484019
:1043C000970700209387C797DC53829719E59C4C89
:1043D0008DC3EF00C155EFF0B0389C4C99CB9707D7
:1043E0000020938727BA9843B70633001C47D58F20
:1043F0001CC7B2402244924441018280829798486F
:104400009707002083C7179554401D8FB307A70057
:104410003E8563E4E700E3E2D7F83385D740B5BFD4
:10442000411106C69707002023ACA7940295B2401D
:104430009707002023A6A78C014541018280994758
:1044400063E9B7008A05970700209387A78CBE957C
:1044500088C18280411171468145170500201305EE
:10446000658B06C69707002023AA078C97070020B4
:1044700023A807909707002023AE078A97C0FF1F45
:10448000E780E03A130680028145170500201305F6
:10449000A58597C0FF1FE7808039EF60812B9707C4
:1044A000002083C7578B13D527008D8B3E958D47F2
:1044B0003305F502854539051375F50F970700207B
:1044C0002385A78299473305F5021305052497D064
:1044D000FF1FE7804010170700202321A78A59CD2E
:1044E000994717060020034646803306F6028145A9
:1044F0001306062497C0FF1FE7806033970700204C
:104500009387C7879C43938707241707002023219D
:10451000F78017F7FF1F0347477D0A07BA9717076A
:104520000020232BF780EFF0EFF03D2397F7FF1FDC
:104530009387077E944397F7FF1F83C7F77A1397F4
:104540002700369717F6FFFF1306E67110C313878F
:1045500017001377F70F0A07369717F6FFFF1306B2
:10456000E67810C313873700890793F7F70F8A0798
:1045700097F5FF1FA38AE576B69790C3B240410135
:10458000828097F7FF1F83C7377617F7FF1F034710
:10459000C77563F3E70217F7FF1F13076777184321
:1045A0009386170017F6FF1FA300D6749396270073
:1045B000369708C33E8582809307F00FE5BF1C4104
:1045C000638A071641777D8FB706002089476314F9
:1045D000D7160357450063000716411122C4194638
:1045E0002A849305F00F690506C697C0FF1FE78070
:1045F000202E05478D47630AE5121C4481CB58588D
:10460000994763040712185C630107121306C0037D
:10461000814517F5FF1F1305A57297C0FF1FE7809F
:1046200000211306C003A28517F5FF1F130545716E
:1046300097C0FF1FE780201C17F7FF1F0357077164
:1046400097F7FF1F9387C76F19E71307001097F6B7
:10465000FF1F239DE66E17F7FF1F0347476F11E704
:10466000054797F6FF1F2384E66E17F7FF1F0357D2
:10467000276E11E76D4797F6FF1F239BE66C17F730
:10468000FF1F0347D76C11E7154797F6FF1FA3805D
:10469000E66C17F7FF1F0347C76B11E7054797F64F
:1046A000FF1F2388E66A17F7FF1F0347976A19E77A
:1046B00003C7F70097F6FF1FA38DE66817F7FF1FE4
:1046C0000347476911E7354797F6FF1F2384E668DC
:1046D00017F7FF1F0347576819E71307800297F67C
:1046E000FF1FA38BE66617F7FF1F0347B76619E79F
:1046F0001307D00297F6FF1FA38EE66403478401D9
:1047000019E71307C00397F6FF1F2387E6649C573A
:1047100091C7829797F7FF1F239CA75CFD57170748
:104720000020A303F78C3D338147B24022443E85ED
:104730004101828089473E85828001114EC697F9EA
:10474000FF1F9389296483A7090006CE22CC26CABD
:104750004AC852C4829713090064B335250303DAAB
:1047600089008146528633052503EFE0A14C97F777
:10477000FF1F93876757804FAA8401456306940201
:1047800033858440636E940003A5490052868146B8
:10479000B335A9023305A902EFE0C149018D269581
:1047A00097F7FF1F23AE9754F2406244D244424928
:1047B000B249224A05618280011122CC0A852E84E9
:1047C0004146970502009385E5B406CEEFE011005F
:1047D000180806043A94035504FF97F7FF1F83D780
:1047E000075BF2406244AA9737450F001305052482
:1047F0003355F5020561828097F7FF1F83D727594C
:1048000051471D45637CF702794719456378F702E4
:104810001307200315456373F7021307B00411450E
:10482000637EF700130740060D456379F700130711
:10483000600909456374F70013B5B70F8280011151
:1048400022CC06CE2A842EC6EFF00FD2B245F2401B
:10485000818D33A5A502229562441375F50F05617C
:104860008280011122CC06CE2A842EC6EFF0CFCF53
:10487000B245F240818D33A5A502229562444205DE
:10488000418105618280011122CC06CE2A842EC688
:10489000EFF08FCDB245F240818D33B5A502229560
:1048A00062440561828097F7FF1F93876749985795
:1048B00039CB411122C426C206C6BE84029717F71F
:1048C000FF1F0357E7422A8415CBBA876373A700FB
:1048D000AA87C207C183BA866373E400A286C206B0
:1048E000C182958F5147635BF700DC5491C3829777
:1048F000EFF0706D97F7FF1F239C873EB240224474
:10490000924441018280828097F7FF1F938747433B
:10491000DC57011106CEAA8581C72AC68297B24507
:10492000D9C19C410545ADCFDC41BDCB83D78500C6
:10493000A5CB83D7A500ADC783C7C500B5E3414666
:1049400017F5FF1F1305054497C0FF1FE780A0EA76
:1049500097F7FF1F938707439C4317F7FF1F232BEE
:10496000F73C97F7FF1F83C7373F8DE79307800218
:1049700017F5FF1F035585413305F50237460F0034
:104980001306062481468145EFE0C12A97F7FF1FF1
:10499000A384A73C17050000130565DA51340145CF
:1049A000F2400561828097F7FF1F83C7C73A1397CC
:1049B000870161876354070497F7FF1F23A4073417
:1049C00097C7FF1F9387272617F7FF1F232CF73A58
:1049D0007D5797F7FF1F23A9E73AB78732009387E0
:1049E00027A197F6FF1F23A3F63A97F7FF1F23810E
:1049F000073AB7C7004023A4E72699BF13F717006B
:104A000005CFB7872003938707D017F7FF1F232F02
:104A1000F736B707C0A817F7FF1F2327F73697C742
:104A2000FF1F9387672317F7FF1F232DF73497F78F
:104A3000FF1F238F073429BF617797F6FF1F239746
:104A4000E63481CB9307003217F7FF1F2311F734A9
:104A5000C9B793072003CDBF011122CC17F4FF1F64
:104A60001304042E084406CE26CA4AC801E90545A7
:104A7000F2406244D2444249056182805C58E5DBE1
:104A8000185C75D77000854582971844B247E300DB
:104A9000F7FE9305E00417F5FF1F0355252B97D06C
:104AA000FF1FE78040B317F7FF1F232FA72461D113
:104AB00017F6FF1F035686299305F00F97C0FF1FB7
:104AC000E780E0D6814417F9FF1F1309E92197F722
:104AD000FF1F83C7C7270326090263C1F40232857B
:104AE00097D0FF1FE78040BC014597F7FF1F23AD1C
:104AF000072097F7FF1F23AB07209DBF97F5FF1FE8
:104B000083D5C524B38795020844185C8981850440
:104B10003E9508C2029765BF011156C297FAFF1F62
:104B2000938A0A2283A78A0022CC4AC84EC606CEA0
:104B300026CA52C45AC0AA892E84328963850722A4
:104B400003A74A03630707147D476366A71497F416
:104B5000FF1F9384641903AA040263170A0A956568
:104B6000938515E017F5FF1F0355451E97D0FF1FCE
:104B7000E78060A697F7FF1F23A8A7182A86630A75
:104B8000051083A74A0303A58A0097F5FF1F83D565
:104B9000E51B8981829783A78A0003AA040217F77D
:104BA000FF1F2325F7168947639CF908C147631245
:104BB000F40E97F5FF1F83D56519938505FC914782
:104BC000B3C5F5028A05D29503C705009307A00572
:104BD000631DF70A83C715006399370B4A85228640
:104BE000910597C0FF1FE78000C19C5052856393D9
:104BF00047150145F2406244D2444249B249224A33
:104C0000924A024B05618280D850E38EE7F89565A1
:104C1000938525E017F5FF1F0355451397D0FF1F18
:104C2000E780609B2A8A35C52A8683A74A0303A5A5
:104C30008A0097F5FF1F83D5651189818297A5B7F3
:104C40008D47639DF900C1476315F40497F5FF1F75
:104C500083D5C50F938545FDF199B5B79147639A03
:104C6000F9006318340397F5FF1F83D5250EA115AE
:104C7000E5B7C147639FF900A14763EC870097F54B
:104C8000FF1F83D5A50CC115C1BF9C5052856397EA
:104C9000470D294585B71307F006568B6361A70AB0
:104CA000130A05FE1947334AEA0217F7FF1F035795
:104CB000E70997FAFF1F938A2A03330AEA023E9A0A
:104CC00083A74A026395470183A40A029DE49305E2
:104CD000E00417F5FF1F0355650797D0FF1FE78016
:104CE000808FAA845DD583274B0397F5FF1F83D55B
:104CF000E5052A8689815285829791451307A0058B
:104D0000898193972500A69783C607006393E604DD
:104D100083C61700639C360385058A052286A695FF
:104D20004A8597C0FF1FE78000AD83A70A02E38290
:104D300097EC268597D0FF1FE78000975DBD13078E
:104D4000E007E368A7F4130A05F985B783D52700C0
:104D500045BF83A70A02E38E97F2268597D0FF1FEF
:104D6000E78080943DB797F7FF1F9387E7F78C5351
:104D70008DD191479306A0058983139727002E971D
:104D800003460700E317D6F003461700631C3601FD
:104D900085078A072286BE954A8597C0FF1FE78050
:104DA00080A581BD83572700C1BF97F7FF1F938759
:104DB00027F9984739C79C5FA9C705476313E504DE
:104DC000411122C417F4FF1F130404F2105006C649
:104DD0000DC6485097F5FF1F83D545F78981829707
:104DE000085097D0FF1FE780208C97F7FF1F23AD57
:104DF00007F097F7FF1F23AB07F0B24022444101B1
:104E000082808280011117F7FF1F130767F34EC6D8
:104E10008329870022CC26CA4AC806CE52C456C26D
:104E2000AA842E843289638A09201C5FBA8A99EB8E
:104E30002945F2406244D2444249B249224A924A48
:104E4000056182805C5BEDD7FD4763E9A70E97F9AA
:104E5000FF1F938969E983A70902B1CB03A58A00E3
:104E600083A749026395A70689476393F408C1475E
:104E7000E310F4FC17F5FF1F035545ED91471305AB
:104E800005FC3345F5029317250003A50902228688
:104E9000CA853E959307A0052300F500A300950061
:104EA000110597C0FF1FE7800095014559B793058D
:104EB000E00417F5FF1F035565E997C0FF1FE78062
:104EC000807197F7FF1F23A1A7E449F995B783A73E
:104ED0004A0303A6090297F5FF1F83D525E78981B9
:104EE000829783A78A0017F7FF1F2321F7E2ADBF40
:104EF0008D47639EF400C147E31CF4F217F5FF1FD2
:104F00000355C5E4130545FD9377C5FFBDBF914724
:104F1000639AF400E31E94F017F5FF1F035505E3B1
:104F20002115DDB7C147E395F4F0A147E3E287F02F
:104F300017F5FF1F035585E14115F9B79307F006F3
:104F400063EAA706930705FE1947B3C7E70217F7F9
:104F5000FF1F0357A7DF17FAFF1F130AEAD8B3870B
:104F6000E702BE9983270A02A9CF83274A02639AE0
:104F7000370703250A0291461308A005FD5593D76C
:104F80002600C207C183139727002A97034607000C
:104F9000631D06078348170003562700639598068C
:104FA000B306D64063CF860485078A072286CA8562
:104FB0003E95C5BD9307E007E3ECA7E6930705F927
:104FC00079B79305E00417F5FF1F035525D897C05F
:104FD000FF1FE780406097F7FF1F23A7A7D251F577
:104FE00081BD83A74A0303260A0297F5FF1F83D5D5
:104FF000E5D589814E85829797F7FF1F23A837D182
:105000008DBFA300B700B2869DBFB385860017F69B
:10501000FF1F0356A6D39105130606FCE3FAC5E06D
:10502000130634001376C60F1106B296230007014B
:10503000A30097002311D70085BF97F7FF1F938721
:10504000A7CA9453BE89A1C203A5090291461308B9
:10505000A005FD5593D72600C207C18313972700EB
:105060002A97034607006316060583481700035670
:10507000270063989800B306D640E3D786F2A300D2
:10508000B700B286C1BF8357C70017F5FF1F03459E
:1050900005CC9305E0043305F5024205418197C034
:1050A000FF1FE780405397F7FF1F23AFA7C449FDB9
:1050B00041B317F6FF1F035666C997F5FF1F83C557
:1050C00005C9B385C502338686001106E3E2C5D65D
:1050D00081BF01458280011106CE2EC6EF80405E61
:1050E00001C9B245F2400355250005616FC0A07BA0
:1050F000F240494505618280A38A018C238A018C94
:1051000023AE018A23A0018C23A2018C23A4018C4D
:1051100023AC018A23AA018A97F7FF1F938787C9C7
:10512000930640382391D702F1761307400B9386FC
:1051300006B82391E7002392D70211679D46130614
:1051400000059305000A1305007D2392E7002393D1
:10515000D70241478546130810F82395E7002396A8
:10516000E7002399E700239AE700239BE700239CAD
:10517000E7002394E702239007002393B7002394CA
:10518000B7002397C7002398C700239DA700239E3D
:105190000700239F0700239007022395D702239639
:1051A0000703239707029308F00723980702239227
:1051B000E7042393E704239FE7042390E706239162
:1051C000E7062392E706239917031307C01C239AC7
:1051D000D702239BD702239C0702239D0702239E0D
:1051E0000702239F0702239007042391D7042394E7
:1051F0000704239507042396D7042397C70423980D
:10520000C7042399A704239A0704239B0704239C1C
:105210000704239DC704239EC7042393A706239452
:10522000070623950706239607062397B7062398B4
:10523000B70623990706239AE7065147239DE706F9
:105240007D57239B0706239C0706239ED706239F93
:105250000706239007082391070823920709239341
:10526000E7088280011126CAAA84214522CC06CEF5
:105270002E8432C636C43AC2EFE07F8A1DC9A246E8
:1052800012473246930700FD2300F5009947A3001B
:1052900095002301F5002303D500A303E5002312A5
:1052A000C500AA8522856244F240D24405616FE0C0
:1052B0007F92F2406244D2440561828023AEA18A8B
:1052C000828023A0A18C828023A2A18C828023A42F
:1052D000A18C8280011122CC4AC806CE26CA2A8916
:1052E0000144B30489006368B400F2406244D244CC
:1052F0004249056182802EC6EFE01FA79317050182
:10530000C183A183B2452380F4009307140093F76F
:10531000F70F850463F9B700CA9709042380A70033
:105320001374F40F7DBF3E847DBFC16717F5FF1F67
:105330000355A5A6FD176304F502411117F6FF1FDB
:10534000034646BB9385C18C06C6EF806015B2400C
:10535000FD5717F7FF1F2312F7A4410182808280B7
:1053600009C925151375F50F1335850E134515005D
:1053700082800145828023900500C9C6797122D4BC
:1053800026D24ECE52CC5AC806D64AD056CA5EC68F
:105390003684328AAE892A8B814463F34407B3078B
:1053A000940083C70700138914004209939A0701E8
:1053B00093DA0A011359090163840A04CA97634105
:1053C000FA04B307240183CB07005E85513F0DC962
:1053D0009387FAFF2390F90063906B03130519007C
:1053E0002295B250225492540259F249624AD24A4A
:1053F000424BB24B45618280D694C204C18071BFDA
:105400000145C5B701458280411126C2AE8422C440
:1054100097F7FF1F23AAC79897F7FF1F23A4B798F2
:1054200097F7FF1F23AEA7962A8441469305F00FF6
:1054300026854AC006C6054997B0FF1FE780404948
:105440006310250597F7FF1F9387C794884BC145C5
:10545000513541469305F00F228597B0FF1FE78035
:105460002047854463189502224497F7FF1F9387CE
:105470006792B24092440249C847C145410199BD73
:1054800041468145268597B0FF1FE7806044E312BF
:1054900025FD4DBF41468145228597B0FF1FE7801E
:1054A0002043E30395FCB240224492440249410167
:1054B0008280411122C426C22E84AA8413060002CF
:1054C000814517F5FF1F1305E58C06C697B0FF1F32
:1054D000E780E03597F7FF1FA38F978A97F7FF1FA5
:1054E000238C87A0EFC0203E854719C181474945DD
:1054F000B240224417F7FF1F230EF7889244410160
:105500008280814781CD19C98547631BF50083C718
:10551000550093E707FCA382F50085473E8582800E
:1055200089476317F50083C7550093F7F703E5B77D
:105530000D478547E314E5FE03C755001377F703CE
:1055400013670704A382E500D1BF81478DC105C160
:1055500003C755009306000C85471377070C6308B3
:10556000D700930600048D476303D70089473E8523
:105570008280411122C4005D06C626C21DC8AA84CD
:10558000085009C597C0FF1FE7800012485009C5A1
:1055900097C0FF1FE7804011085409C597C0FF1F3F
:1055A000E7808010228597C0FF1FE780E00F23ACC3
:1055B0000402B240224492444101828009ED97E7FF
:1055C000FF1F83C7477D17E5FF1F1305257E81CB8E
:1055D0001385C18A828017E5FF1F1305257D828010
:1055E00017E5FF1F0345257B828097E7FF1F938701
:1055F000677AC847828097E7FF1F9387A779884B10
:10560000828097E7FF1F9387E778DC4B884382808F
:1056100097E7FF1F93870778D84B1C4385071CC368
:1056200017E5FF1F034535779307F00F6305F50076
:1056300091656FE03F878280011122CC06CE2E84D7
:1056400032C6EF80A0189147B245631FF5009387DB
:10565000818C9C438DC303A30700630E0300228546
:105660006244F240056102839387018C9C4381C7A9
:1056700003A34700DDB7F24062440545056182801F
:10568000011122CC2A840355450006CE26CA4AC8F9
:105690004EC6EF70D07135C52A8983440500834911
:1056A000C500C13D4A85EF80E05103554400EF80BD
:1056B000200D83C7418DB1CB6399970483C5518D6C
:1056C0002685EFF05FA119E1238A018C0355440080
:1056D000EF80C00F9147631FF5000357440097E721
:1056E000FF1F83D7876B6317F700FD5717E7FF1F6F
:1056F0002315F76AF2406244D2444249B249056137
:10570000828081499304F00F6DB79307F00FE38F08
:10571000F4FA8346640003564400034524004E8790
:10572000A685893665B779715EC6AA8B2E8552CC5F
:1057300056CA5AC806D622D426D24AD04ECEAE8AEF
:10574000328B368AEF70B0667DC1045D2A89E5C070
:105750009C50614599C3130540039C5481C7510572
:105760004205418163050A00710542054181DC5013
:1057700081C75D0542054181EFE06FBA2A8445C9C2
:105780006146814597B0FF1FE780600A97E9FF1FD8
:1057900083C949656394090083490900930700FDA3
:1057A0002300F400A947A30074012301F40023039C
:1057B00064018C50231254011305840191C908C45B
:1057C0007146930A440397B0FF1FE780C0025685D5
:1057D0008C5491C948C45146930A450197B0FF1FA4
:1057E000E78060015685630C0A0008C87146D285BF
:1057F000930AC50197B0FF1FE780E0FF5685CC50A4
:1058000099C548C85D4697B0FF1FE780C0FEA285D6
:105810004E85EFE02FBC2254B2509254F249624AB6
:10582000D24A424BB24B4A850259456199B3B250B4
:10583000225492540259F249624AD24A424BB24B24
:105840004561828001114EC6AA892E854AC806CEBE
:1058500022CC26CA2E89EF70905521C997E4FF1FEC
:1058600083C4445899E0834405001945EFE02FAB09
:105870002A8405CD8145194697B0FF1FE78020FB9C
:10588000930700FD2300F400B947A300340123016E
:10589000F40023122401A2856244F2404249B24935
:1058A0002685D24405616FE0EFB2F2406244D244F3
:1058B0004249B2490561828039715ECEAA8B2E853C
:1058C00026DA4ED652D456D25AD006DE22DC4AD838
:1058D000AE84328BB68A3A8ABE8942C6EF70304DAA
:1058E00021CD2A894145EFE08FA32A8431C5414665
:1058F000814597B0FF1FE78080F317E5FF1F034541
:10590000654E19E103450900930700FD2300F400EB
:10591000BD472301F400B247A30074012312940091
:1059200023046401A304540123054401A3053401A5
:105930005CC4A285EFE00FAAF2506254D2544259DF
:10594000B259225A925A025BF24B216182807971DC
:1059500026D2AA8439454AD04ECE06D622D42EC6A7
:10596000B2893689EFE0AF9B21C1B2459307000DA4
:105970002310F500B1472A842312B5002301F50056
:10598000CE851905194697B0FF1FE780C0E62306AC
:105990002401A2852254B2500259F24913F5F40FA2
:1059A000925445616FE00FA3B250225492540259B1
:1059B000F2494561828017E7FF1F0347D73D9307F0
:1059C000F00F630DF706411126C2AA84394522C49F
:1059D00006C64AC0EFE0AF942A8439C9930700FD98
:1059E0002300F500A30095002301050097E5FF1FA4
:1059F0009385C53B0D05194697B0FF1FE780A0DFD3
:105A000017E9FF1F1309093983578900A28517E594
:105A1000FF1F034555382315F4008347190023065B
:105A2000F4002244B2409244024941016FE08F9A4F
:105A3000B240224492440249410182808280011195
:105A40005AC02A8B314526CA4EC652C456C206CE0B
:105A500022CC4AC8AE84B28A368ABA89EFE02F8C4B
:105A600035CD2A842685EF70903411C50347C500D3
:105A7000A1476314F70417E9FF1F0349D9319307BE
:105A800000FD2300F4009D47A30064012301F400FE
:105A900023129400231354012314440123153401C9
:105AA000A2856244F240D244B249224A924A024B51
:105AB0004A85424905616FE0EF9117E9FF1F0349ED
:105AC000B943E31E0BFA938701979C439C47C5DBC0
:105AD000CE865286D6852685829755B7F240624497
