:040000006F101075F8
:10000400000000000000000090000020B00200206A
:10001400A9BDF9F3900000200000000000000000DA
:10002400900000209000002000000000000000006C
:10003400900000200000000090000020000000005C
:1000440090000020900000209000002090000020EC
:1000540090000020900000209000002090000020DC
:1000640090000020900000209000002090000020CC
:10007400A0030020900000209000002090000020A9
:1000840090000020900000209000002090000020AC
:1000940001A0F375048001000100B7170040930626
:1000A40070052380D704130780FA2380E704010036
:1000B400010003C6B7041376F60DA385C7041376AF
:1000C40005024DCE03C6A700118A0DE6010001000A
:1000D4002380D7042380E7040100010003C7A7009D
:1000E400136747002385E7009307004B01000100D5
:1000F400FD17EDFF01000100B717004093067005DE
:100104002380D704130780FA2380E7040100010049
:100114007D892394A7000100010001000100010072
:1001240001002380D7042380E704010001000100BB
:1001340001003727004093061005A303D7802380CE
:1001440007040100010001000100B7170040130774
:1001540070052380E704130780FA2380E704010075
:10016400010003C7B70413670708A385E7042380C6
:100174000704010001007390058082801376050452
:1001840045C203C6A700418A0DE601000100238091
:10019400D7042380E7040100010003C7A700136705
:1001A40007012385E7009307007D01000100FD1787
:1001B400EDFF01000100B71700409306700523808E
:1001C400D704130780FA2380E704010001001376A3
:1001D400F501136606042394C70001000100010021
:1001E4000100130660046310C502010001002380AE
:1001F400D7042380E70401000100B7270040094722
:10020400A383E78089B7010001002380D7042380FA
:10021400E70401000100B727004013072005CDB70C
:10022400010001002380D7042380E70401000100BA
:1002340003D787001367070C2394E70029B74111FC
:10024400814601468145114506C6052CF3270080E9
:10025400A18B9386018789CBF327008023A8F1869D
:100264009C42DD9B7390078001000100B71700409A
:10027400130770052380E704130780FA2380E7043B
:100284000100010003C76704136717002383E70411
:1002940023800704732700809C42A18BD98F73901D
:1002A400078023A8018601000100B2404101828039
:1002B4008146014681451145C922F3270080A18B5F
:1002C4001387018789CBF327008023A8F1861C4379
:1002D400DD9B7390078001000100B717004093066F
:1002E40070052380D704930680FA2380D704010085
:1002F4000100FD562396D70223800704F3260080CD
:100304001C43A18BD58F7390078023A8018601001D
:100314000100F3270080A18B89CBF327008023A859
:10032400F1861C43DD9B7390078001000100B71721
:100334000040930670052380D704930680FA238037
:10034400D7040100010083C6670493E616002383E3
:10035400D70423800704F32600801C43A18BD58F88
:100364007390078023A801860100010001A0BD4706
:100374003305F50201007D1575FD8280411122C40B
:1003840026C206C6AA84014463179400B2402244DC
:100394009244410182801305803ED13F0504EDB7AC
:1003A400B7170040130700032388E702854723A0FB
:1003B400F18A73002030411106C6AD25FDBF230329
:1003C400048015472303E48001002302A480828073
:1003D40083076480E3CE07FE2303048082808307BF
:1003E4006480E3CE07FE03454480828083076480F3
:1003F400E3CE07FE2302A4808280411126C44AC2B0
:100404004EC006C61377F50BAD47AA892E899544CD
:100414006306F70019456537653F8D444E854537BA
:10042400FD59FD1463983401B240A2441249824933
:1004340041018280135509011375F50F453F2209C7
:10044400CDB7011126CC06CEB704080051371545A7
:10045400BD37713769372AC6A53F324593771500F2
:1004640089EB136515001375F50FF240E24405613D
:100474008280FD14E9FC0145CDBF397126DC4ADADE
:100484004ED852D656D45AD25ED006DE62CE66CC50
:10049400B7E700E07D5783AA070022C603AA4700F6
:1004A40023A0E71823A2E718B71700401307700525
:1004B4002380E704130780FA2380E70483C74704F3
:1004C400930B75FFB684E20793FBFB0F8546AA895D
:1004D4002E8B328937240040E187015763FA760175
:1004E4006308D5008946130700026313D50001573A
:1004F400D98F93F7F70FB71C00402382FC041147F0
:100504002303E4801305F00F5D3D094CD135636D81
:100514007C11B7050700DA9537870700795563F230
:10052400E504B3879500636EF702370B0800A9470B
:1005340033EB65016399F90689E48144513D2685CD
:100544000DA0DA850945553D05090345F9FFFD145C
:10055400050B693D81C49377FB0FFDF7DD3569FD1C
:100564007D55B7170040130770052380E704130770
:1005740080FA2380E70403C74704418B2382E704FE
:10058400F250B7E700E023A0571123A24711E25429
:1005940032445259C259325AA25A125B825B724C8B
:1005A400E24C21618280A5476395F90685691309A8
:1005B400F00FB3069900B3742B01B6941349F9FFF5
:1005C400B3749900856B33796901416B9387F9FFA3
:1005D400B3F7270199E363FC340193D94900C14778
:1005E400E3E637FF99BF0569C1697D19D9B71305DA
:1005F400800D638869011305000263847901130582
:100604001008CA85DD3B353D21DD4E99B384344164
:10061400D9B7DA852D45D533CA94E30099F2050993
:100624007D3BA30FA9FED5BF9387F9FF93F7F70F7F
:100634006361FC0C83C71C0413073008631FF704B1
:1006440037070800636BEB04B3079B00B706100081
:1006540063F5D704334BEB0089476393F90689802C
:10066400D549E38C04ECDA850945413B110903279C
:10067400C9FF91472320E48003076480E34E07FE0B
:1006840023033481FD17EDFBFD14110B81C4937713
:10069400FB0FE9FF7D3371F5E1B5B717004003C7E0
:1006A4005704B70708001377070219E3B787070051
:1006B4007955E378FBEA33079B00E3FFE7F855B588
:1006C4008547E382F9F2DA852D45053B9389F4FFEA
:1006D400E38504E6293393F7390091EB83260480FC
:1006E4000327090093074900E39AE6E43E89CE8490
:1006F400F1BFB5476396F9001305900BC93135BDB9
:10070400B1471305B00AE38BF9FE99476391F904E5
:10071400B7050800B365BB002D45C53181448D4B39
:10072400A149753963967401832704802320F90055
:100734008504E39834FF8327048013172B01635542
:1007440007002312F900D5BB2322F900FDB39D470E
:100754006399F90281451305B0044531BD44232052
:10076400090023220900FD599D3993F77400CA97A3
:1007740003C70700FD14398D2380A700E39634FFD7
:100784006DBBA1476392F9046D398144630D0B007D
:100794008D479304C0036308FB00930400056304BE
:1007A4008B01930440041375C507E30895D81945D4
:1007B400393139390545213126850D3909453D3110
:1007C4004931E31C05D669BB91476399F9001305C8
:1007D4006006F536F53E130590090DB7E38F09D48D
:1007E400F154A9BB19CD91CD09CE81473387F500CA
:1007F400834607003307F50085072300D700E31776
:10080400F6FE828019C991C909CA910583A7C5FF5B
:1008140011057D16232EF5FEC5BF828001C919C6B8
:100824002A960505A30FB5FEE31DA6FE8280814727
:100834003307F5000307070019E33E858280850727
:10084400C5BF01112E8626CAAA8413150601930575
:10085400F004418122CC06CE32C6EF00B0602A8477
:1008640001C53246A685BD3F2285F2406244D2448A
:1008740005618280854715C18DC105C28147B306D4
:10088400F5003387F50083C6060003470700639825
:10089400E6008507E315F6FE85473E85828081479D
:1008A400EDBF9307F6FFBE952A966313C5008280B9
:1008B400FD1583C715000505A30FF5FEFDB7AA872F
:1008C400014581CF09CE3E96850703C7F7FF63171D
:1008D400B700E39BC7FE0545828082800145828084
:1008E4007971973700009387675622D4804306D6E0
:1008F40026D24AD04ECE52CC56CA5AC85EC679C009
:10090400B7C4C901014B973900009389A953938453
:10091400F437173A0000130AAA53973A0000938A4F
:10092400AA4D173900001309E9568357240095E3AB
:100934005C44631D0B00173700002329F750832BF9
:10094400C4002285EF00305F5E84B9A82326FB0033
:10095400FDB783A7090082971C443307F5406376EB
:10096400F500032749001D8F2A9763E2E4089737AF
:10097400000023AB07488355240003450400973047
:1009840000E0E780E04B5C405844A1CB0C440326D4
:100994004900AE97BE8663E4B70063E4C700B3863C
:1009A400C74014C4228B3A8449F0973700009387D8
:1009B400A7449C4B09476372F706F91717370000E1
:1009C4002324F744B250225492540259F249624A01
:1009D400D24A424BB24B4561828063170B00973772
:1009E400000023A5E746A1BF2326EB0089BF032708
:1009F4004A0209CF63EFA7003385A74083A70A0102
:100A04006376F5009737000023A0A740228B40446B
:100A140061BF03274900BA97C5B79737000023A5DC
:100A2400073E4DB7411122C4173400001304843F1C
:100A34001C4006C626C24AC091C782979737000059
:100A440023A2073E9737000083C7975E858B9734B0
:100A540000009384A45D95C397370000A38A075CC4
:100A640083C774001547637AF700E52B83C77400C6
:100A7400F5178A07A2979C4382971C4491C38297D7
:100A8400173900001309493C0327090017360000F1
:100A9400034696369737000083C7073693961700A8
:100AA400BA9683D60600D5CE9737000083C7C734DD
:100AB40063E3C70C97370000238007341C40639D11
:100AC40007129737000083C7F75691CF83C7740086
:100AD40093F7F70F89EB97370000A38D075497809E
:100AE40001E0E7808042973700009387A7359C4355
:100AF40063840710973700009387C739DC4317379F
:100B040000002323F730E93B9737000093874734ED
:100B1400DC53FDC3173700001307072E184B973714
:100B2400000083C737346369F70C83C77400154723
:100B34006364F70C9737000083C70754918BCDEF9C
:100B4400032609009736000083C6162B63CCD70A08
:100B54002244B240924402494101173300E0670045
:100B64000379850793F7F70F973600002386F62855
:100B7400E3E2C7F215BF86073E97835507002310AB
:100B8400070097370000239D072A973700009387B3
:100B940027299C4317350000034505261317250014
:100BA400BA979C4382979737000083D767291737F2
:100BB40000000347672493C7F7FF7D8D9317170041
:100BC400032709003E97835707005D8D2310A70074
:100BD4009737000083C7472291C78507173700005E
:100BE400230CF7201737000003470721973700002D
:100BF40083C79720E370F7ECB24022449244024941
:100C040041018280139717003297035707006DF74D
:100C140085072DBFAD6737C70040BD072326F720E2
:100C24000F100000973700009387071DC84F8327D4
:100C34008726BD66BD0693C7F7FF99836A052326F9
:100C4400D7205D8D82804111B7170040985F3AC666
:100C5400945F3247E39CE6FE3245410182801305EE
:100C6400F00F8280011122CC604126CA4AC84EC6C8
:100C740052C406CEAA841D4A130965058549BC449D
:100C84006364F4000545B9A003C7D4008347440056
:100C9400631A470503C784026304F7000040C5B71D
:100CA4000347540083C75405E31AF7FE1946CA855F
:100CB40013056400C136E31335FF0347C40083C73B
:100CC4009402E31DF7FC0357E40083D7A402E3175F
:100CD400F7FC0145F2406244D2444249B249224AF7
:100CE40005618280E31CF7FA0347540083C7540567
:100CF400E316F7FA1946CA8513056400A53EE31FF7
:100D040035F9C1BF0111973700009387274222CCE0
:100D140003A4070C26CA06CE2AC42EC6854419E4A9
:100D24000145F2406244D2440561828083479100C8
:100D340003471400858B6304F7000044CDB71946BC
:100D44009305A100130524003536E31895FE0545E7
:100D5400C9BF173700001307672C1C439306001004
:100D640094C301000100010001001C4323A00700FB
:100D74008346150003482500A2064208C29603488C
:100D84000500C296034835006208C29694D783468C
:100D9400550003486500A2064208C2960348450070
:100DA400C296034875006208C296D4D7834695005C
:100DB4000348A500A2064208C29603488500C296CD
:100DC4000348B5006208C29694DB8346D500034805
:100DD400E500A2064208C2960348C5000345F50093
:100DE400C2966205AA96D4DB83C6150003C5250006
:100DF400A2064205AA9603C50500AA9603C53500B6
:100E04006205AA9694CF83C6550003C56500A20661
:100E14004205AA9603C54500AA9603C57500620556
:100E2400AA96D4CF83C6950003C5A500A2064205A1
:100E3400AA9603C58500AA9603C5B5006205AA96BD
:100E440094D383C6D50003C5E500A2064205AA963D
:100E540003C5C50083C5F500AA96E205AE96D4D3B2
:100E6400D443F59AD4C3D44393E61600D4C394432D
:100E740093E6160094C3BA879443D842058B59E38A
:100E8400984E01452300E6009843184F2183A300A0
:100E9400E6009843184F41832301E6009843184F16
:100EA4006183A301E6009C43D84F2302E600D84F98
:100EB4002183A302E600D84F41832303E600D84FE1
:100EC4006183A303E60098532304E6009853218327
:100ED400A304E600985341832305E60098536183F5
:100EE400A305E600D8532306E600D8532183A306BE
:100EF400E600D85341832307E600DC53E183A307CC
:100F0400F600828001008DBF1737000013074711D8
:100F14001443411122C49C5E4AC006C6998326C26A
:100F2400858B3A84173900001309490FD1CB9C5E95
:100F3400973400009384840F93F7F7F99CDE1737F6
:100F440000000347070F93070008631BF70083277C
:100F540009009C4393F7070417370000230BF70C91
:100F640083C7040093F707049DC397370000938752
:100F740067ED9C4382979737000023A1A70C83C792
:100F8400040093F7F70B173700002301F70A83C710
:100F9400440093F707048DE7854717370000A3093A
:100FA400F708973700009387270A9C43096798C777
:100FB400130700FC97360000238CE606D844F8D3C8
:100FC4001C40985F1183058B09CB985F3D9B98DF8C
:100FD400054797360000238DE604985F1D83058B33
:100FE40011CB985F1377F7F798DF85471737000021
:100FF4002300F70483270900D8430583058B19C709
:10100400D843759BD8C3D843799BD8C3B2402244F4
:101014009244024941018280397106DE16DC1ADAF3
:101024001ED82AD62ED432D236D03ACE3ECC42CA9C
:1010340046C872C676C47AC27EC0F935F250E2520E
:101044005253C2533255A255125682567247E24742
:101054005248C248324EA24E124F824F2161730051
:10106400203097370000938727FE9443973700007A
:101074009387C7FB03C70700058B11CB9737000085
:10108400238807FA97370000A38407FA828003C7EE
:101094001700058B65F7F85271FF83C75700DDB75A
:1010A400173800001308C8F7032708001C5F95834E
:1010B400858BD1E709C61C5BBD832300F60085CA76
:1010C40083270800985B4607935767016356070018
:1010D40093E707C0C207C18303970600C207C1870D
:1010E40009C7BA970947B3C7E7022390F60085CD2D
:1010F400834715008DCB9736000083C686F393F69D
:1011040006041387970089478DCA3A95034705005B
:10111400854699471376F7066311D60262076187FD
:10112400B947634C0700832708009C5FED838D8BD0
:1011340017370000A301F7F081473E858280854779
:10114400EDBF411122C406C6173400001304C4EFD6
:1011540018403DE9AE877453FDFE3E85B28597374E
:101164000000238607EC978001E0E78080AD973785
:1011740000009387E7EA9C43B70680009843558FA5
:1011840098C3D857719BD8D797370000A38207EA32
:1011940097370000A38C07E81C40094798C3144004
:1011A40017370000130787E883472700858B89EBEF
:1011B40083473700858BD9C797370000238A07E612
:1011C400B2402244410182808D476310F502973773
:1011D40000009387E7E49C43B70680009843558F4B
:1011E40098C3D857719BD8D75DBF8547E319F5FAE3
:1011F4005447F977FD17F58F5CC70F1000001C40AA
:10120400096798C7130700F8173600002302E6E2BF
:10121400173700001307C7E01043184231830D8BC2
:1012240011E713076019F8D3D4C795BF18420946CC
:1012340031830D8B6315C7001307E043EDB7130724
:10124400E01BD5B7FC52ADF3A5BF5D71A2C4A6C225
:101254002A84130680022800AE849305100886C6EB
:10126400CAC04EDE52DCEFF06FDB3545978001E0FB
:10127400E78040DC17330000130383DA832703007D
:101284009376F41F173E0000130E4EE123A40700CB
:10129400984B973E0000938E2EDB370FFCFF1367AD
:1012A400F70398CBF84F130510F8B702040013772F
:1012B40007E0558FF8CF9843F576FD16758F98C3E0
:1012C4009843B7063300930380251377F7E798C351
:1012D400984311497D1F1377F7E71367071098C3E5
:1012E40003270E008549930F80021C47D58F1CC726
:1012F40083A70E001307900D3400B8CB0147935514
:101304003700A69583C7050013767700B3D7C74087
:10131400858BE1C38327030083280E00239C0704E5
:101324002390070603A8C8021378D8FF23A608034E
:1013340083A807001378F70793F808F833E808013F
:1013440023A0070103A847023368580023A2070318
:1013540083A80E00014823A2780603DA0706630770
:10136400480303A80703038A06001358F800620819
:101374001358884163580A0103A807031358F80057
:101384002380060103D807061378F80F03AA48063A
:1013940063060A0003DA8705E37F49FB03A84702D3
:1013A4003378E80123A2070383870600635CF40013
:1013B40003C805003396C9001346F6FF33760601C9
:1013C4002380C5003E8663D3A7002A8613158601B1
:1013D400618505071377F70F8506E312F7F3B64027
:1013E400264496440649F259625A616182809736CE
:1013F4000000938666C59C42D847131617016355AF
:101404000602984713161701635006027D57B8D792
:10141400173700001307479E584F0507173600007B
:10142400232AE69E116798C798470D83058B1DC331
:10143400173700000347A7BF1367170017360000CC
:101444002307E6BE130700F8173600002302E6BEA2
:10145400214798C79847058B09CF173700000347E2
:10146400F7BC1367170017360000A301E6BC054755
:1014740098C798470983058B09E798470583058B27
:1014840031CF984717360000130646BA17350000C7
:10149400130505B90983058B630307101841184325
:1014A40031830D8B75EBAC4B184E93F50502034756
:1014B4001700CDCD79EF13077006D8CF0347060088
:1014C40013671700173600002302E6B6114798C7C2
:1014D40018415C57F19B93E717005CD79C429847EF
:1014E4009316370163D606029736000083C686CB6F
:1014F400C18A17370000130767C3C5CE03478707A0
:101504001367070297360000238EE6C8056798C75D
:1015140098479316270163D1060217370000034743
:1015240027B16207618763570700054797360000B4
:101534002380E6B0096798C798479316070163D6D6
:1015440006029736000083C6F6C5858A1737000061
:101554001307C7BDADCE0347970713672700973618
:101564000000A381E6C4216798C7828029D78545F6
:101574006315B7001307B00689B789456315B7002B
:101584001307F0061DBF8D456315B7001307300719
:101594002DB71307500715B71307600739BF034763
:1015A40036001367170017360000A302E6A80947A0
:1015B40039BF834687070946BD8A6388C600034747
:1015C40087078D463D8BE313D7F4114725BF834628
:1015D4009707918AC9DA034797071367870041B7CA
:1015E400397106DE16DC1ADA1ED82AD62ED432D287
:1015F40036D03ACE3ECC42CA46C872C676C47AC207
:101604007EC0F533F250E2525253C2533255A255C2
:10161400125682567247E2475248C248324EA24E90
:10162400124F824F21617300203097370000938757
:10163400A7A198438567938707777CD397370000E2
:101644009387C7A59C4383A607091396560063583E
:10165400060083A6070913966600634406007453C4
:10166400FDF2828071C5AA870145E9C58D07C207CD
:10167400C183F19BC207C18313074003636FF70261
:1016840017370000130747AA08431737000013074A
:1016940027A914436398A602172700001307477B62
:1016A400185B014541CB4111C20706C60545DD8DD6
:1016B4000297B240014541018280173700001307A9
:1016C40067A6D9B70357650035E303574500636F31
:1016D400F704B306F7402146637CD60203280500CD
:1016E400938687001D8FAA9661171726000003565C
:1016F40006712392E60023A006012393060014C179
:101704002312F500130786FF972600002399E66E3F
:101714002313B5009725000083D5656EB387F54084
:1017240017270000231DF76C2105828008419DB70F
:101734000145828082800DC1973700009387C79E40
:1017440003A30700973700009387879D83A80700AA
:1017540081469A8763E31701828003A80700636DBB
:10176400F50A636BA80A13878700E367E5FE03D6CF
:101774006700216705076317E60003C7419405075F
:101784002382E194972500009385056703D64700DB
:1017940003D7650023930700329742074183172537
:1017A4000000231EE564638A6702173500001305F1
:1017B400659708416303F50203D5660019ED83D7E5
:1017C400460023A0060121073E9621062392C60067
:1017D400972700002395E762B6879843E30E17F72F
:1017E40097360000938606949442E307D7F683560F
:1017F4006700BDF283D64700035647001843A1068D
:10180400B2962392D70098C383D76500A107172700
:1018140000002316F75E8280BE86C28725BF032799
:10182400851163020712411122C406C68347C5000D
:101834008345E5042A8493F7C70F2306F5008346FE
:1018440097000356C70013958601618563F2C508A6
:10185400635B05060345870093F6F607A304D700E8
:10186400054693E627006314C50093E61700230694
:10187400D4005C4389075CC3A30AB40003250411A4
:101884002E864C430905EFE0FFF5832784110346B8
:101894005401D44303D7C700B296118FD4C32396FF
:1018A400E7008947A30DF40003476403972700006A
:1018B40083C7275B6378F7048347C40093E7070172
:1018C4002306F40081A093E717002306F4006DB704
:1018D4009376F60F635D050203458700854513E69D
:1018E40027006314B50013E617002306C400A30AF7
:1018F400D400A30407008547A30DF40083278411B3
:101904009C43DDF3B240224401454101828093E7C8
:1019140017002306F400A30AD400A3040700032538
:1019240004114C430905EFE0FFEB832784110346C0
:101934005401D44303D7C700B296118FD4C323965E
:10194400E7008D4755BF0545828097370000938790
:10195400A7909C43411122C406C6858B2A84C5EFF7
:101964004165130525F5974002E0E780E0E145C5B0
:101974008347A5002315F50083270412BDE7232020
:10198400A4122322A41285472311F4042320050062
:101994008347640154412316F5000347D40023040C
:1019A400E5000547A304E5001727000013070768AF
:1019B400184F1385170215811C437D151375F50FF8
:1019C4009CC25C43DCC21C479CC65C47DCC61C4B07
:1019D4009CCA5C4BDCCA1C4F9CCE5C4FDCCE19CD40
:1019E4009386060213070702C1BF8327441288C3E4
:1019F400835724042322A412850779B7972700006C
:101A040083D747738507172700002315F772B24061
:101A14002244410182808347C40023090400054510
:101A240093C747002306F400DDB78347850193F786
:101A3400E70FD5EF83479501DDEB03462501834688
:101A4400C50009CA8345650317270000034777418A
:101A540063E7E50013F7060141CF014709C6C18AD0
:101A64000357651C81C68356A51C369751C31307BB
:101A7400C7121725000003556542B335A702374640
:101A84000F00411113060624814622C426C206C64D
:101A94007D543305A702978002E0E780200A972748
:101AA400000083C7773CB384A7009727000093877F
:101AB400E76703A787098327070963F387003E8441
:101AC400184375FB972700009387C7379C43829779
:101AD40081476364A400B307A440B2402244B3B76F
:101AE400970093C7170092443E8541018280814745
:101AF4003E858280972700009387075598437C533F
:101B0400FDFF8280797126D206D622D44AD04ECEE9
:101B140052CC56CA5AC85EC683475503034475134C
:101B2400AA843E941374F40F9307400263F687006B
:101B34001304B4FD1374F40F03AA841383AAC41307
:101B4400A38B841222865285D685978002E0E78093
:101B540060F9058915E503CBD41201498149337B2A
:101B64006403930B50024A865285D685978002E01F
:101B7400E78040F7058915C5639169031374F90F6C
:101B8400238B8412B250225492540259F249624A6D
:101B9400D24A424BB24B456182808509E20993D90E
:101BA40089410509E31179FDE1BF832785090356BE
:101BB4000504797193D60701BD8EC206C182358EA4
:101BC4001357764093575640898B058B5D8F9357F7
:101BD4003640918B5D8F93571640A18B5D8F931781
:101BE4001600C18B5D8F9317360093F707025D8F44
:101BF400931756009355860093F707041E065D8FCE
:101C04001376F60F518F93D7554013D63540118A6A
:101C1400898BD18F13D67540D18F13D61540218A65
:101C2400D18F13961500418AD18F13963500137600
:101C34000602D18F13965500137606049E05D18FA4
:101C440093F5F50FCD8FA20745465D8F3307C70285
:101C540022D42A8426D252CC56CA032A8413832A35
:101C6400C4135AC806D63697420741839357774020
:101C7400135557400989858BC98F135537401189EE
:101C8400C98F135517402189C98F1315170041892E
:101C9400C98F1315370013750502C98F1315570023
:101CA40093558700137505041E07C98F1377F70F23
:101CB400D98F13D5354013D755401189098B498FD6
:101CC40013D57540498F13D515402189498F139534
:101CD40015004189498F1395350013750502498F05
:101CE40013955500137505049E05498F93F5F50F5B
:101CF4004D8F2207D98FB387C7024AD04ECE5EC616
:101D040062C4B697C207C18313D7774013D557402F
:101D14000989058B498F13D537401189498F13D50C
:101D240017402189498F139517004189498F1395CD
:101D3400370013750502498F1395570093D5870013
:101D4400137505049E07498F93F7F70FD98F13D5A1
:101D5400354013D755401189098B498F13D57540E8
:101D6400498F13D515402189498F13951500418951
:101D7400498F1395350013750502498F1395550046
:101D8400137505049E05498F93F5F50F4D8F2207B2
:101D9400D98FB387C702130650025285D685B697EA
:101DA400BD8E93940601C18033F6C402137BF60FF3
:101DB400978002E0E78000D305890DED8347D412B4
:101DC40001498149B3849702130C5002C1804A86A9
:101DD4005285D685978002E0E780C0D00589937B41
:101DE400F90F11C563863403850993F9F90F0509C1
:101DF400E31F89FD230B6413B250225492540259F9
:101E0400F249624AD24A424BB24B224C456182802B
:101E14005E8BCDB7797122D406D683C735002E8464
:101E240023160100A307F10083C74500100802C070
:101E34002307F10083C755008A8502C2A306F10077
:101E440002C402C802CA02CC02CEEFE09FF00347EC
:101E5400F1018347040001456310F7020347E101E0
:101E64008347140001456319F7000345D1018347F3
:101E740024001D8D13351500B25022544561828013
:101E84000111972700009387672A22CC03A4870CAB
:101E940026CA4AC84EC606CEAA8413092500854917
:101EA40015C083C7140003473400858B6304F7000F
:101EB400405CFDB71946930544004A85EFE09F9BBB
:101EC400E31835FF2285F2406244D2444249B249C4
:101ED400056182804111972700009387272522C43A
:101EE40003A4870C26C24AC006C6930425000549EC
:101EF40001E82285B2402244924402494101828091
:101F0400A6851305A4023937E30525FF405CCDB748
:101F14004111972700009387672122C403A4870CEB
:101F240026C24AC006C693042500054901E8228555
:101F3400B24022449244024941018280A68513059D
:0C1F4400A401C93DE30525FF405CCDB7BA
:101F500097110020938181C5176100201301810A28
:101F60001305400097E5FF1F9385C509170600205C
:101F7000130606FE63FAC5008322050023A0550060
:101F800011059105E3EAC5FE17A50200130545FCFE
:101F9000970500209385C5FB1386018763FAC5006A
:101FA0008322050023A0550011059105E3EAC5FE33
:101FB00013850187972500209385852B6377B500CE
:101FC000232005001105E36DB5FEFD42739002BCB0
:101FD0008D4273904280930280087390023097E2A2
:101FE000FF1F9382220293E23200739052309712C5
:101FF0000000938222E073901234730020303D433E
:102000002A876373C3029377F700BDEFADE593763C
:1020100006FF3D8ABA960CC34CC30CC74CC7410798
:10202000E36BD7FE11E28280B306C3408A069702B3
:10203000000096966780A6002307B700A306B700A6
:102040002306B700A305B7002305B700A304B70014
:102050002304B700A303B7002303B700A302B7000C
:102060002302B700A301B7002301B700A300B70004
:102070002300B700828093F5F50F93968500D58DE8
:1020800093960501D58D61B79396270097020000BE
:1020900096968682E78086FA9680C1171D8F3E96B7
:1020A000E374C3F8A5B7B717004003C777051377E4
:1020B000E70FA38BE704130700F8A38DE7043D4760
:1020C000238CE70413075003A38CE704828041119B
:1020D00006C622C473740480252993072003335550
:1020E000F502B717004083C6F7023716004093F693
:1020F00006082A8739A08347F60293F70708639BEF
:10210000F6007D176DFB014573100480B240224438
:1021100041018280B71600407D157DD503C7F602C8
:1021200013770708E30AF7FE054573100480B240F1
:10213000224441018280F3760480B717004003C730
:10214000E7020D891377C70F498F010001001306BD
:1021500070052380C704130680FA2380C70401009A
:1021600001002387E7022380070401000100739028
:1021700006808280411106C622C426C2F374048000
:10218000B717004083C7F70293F7F70F13E4470030
:1021900009E5054513F4B70F793F01000100B717B2
:1021A0000040130770052380E704130780FA23809B
:1021B000E70401000100A3878702238007040100D0
:1021C000010073900480B240224492444101828015
:1021D000011122CC371400408357A401096706CEB1
:1021E00026CA4AC84EC6D98F0565231DF40081450D
:1021F000130505C0BD24F379048001000100130913
:10220000700523002405930480FA23009404010040
:1022100001008347F4020D4593E71700A307F4027A
:10222000193F1305800C97E0FF1FE78060150545F7
:102230001937010001002300240523009404010044
:1022400001008347F40293F7D70FA307F40223009A
:102250000404010001000545313F953D739009805C
:10226000F2406244D2444249B2491375F50F056108
:102270008280F3760480371700408347E702120517
:10228000BD8BC98F93F7F70F01000100130670058E
:102290002300C704130680FA2300C70401000100CD
:1022A0002307F70223000704010001007390068052
:1022B000828041112A83014E930E407E130F001934
:1022C000930F400663E56E10930800191303400650
:1022D000B3781503854E0D4FA14F337365020D89F9
:1022E0001335150063EFBE101308F6FF7946729898
:1022F0004208135808013307C70213D61700BE0758
:1023000032976146B3F6C60213068070B386C602E2
:102310003697A166F58F42075D8FF3750480B71677
:10232000004083C7F60293F70708A307F1000346AE
:10233000F10083C7F60293F70708E394C7FE8347CB
:10234000F100B716004093F7F70F638607100100FE
:102350000100B7170040930670052380D704930649
:1023600080FA2380D7040100010023AA070383C653
:10237000170393E60608A388D70223800704010009
:10238000010011667D16D45B03A8C70313854703BC
:10239000B3C60601F18EE5FA01000100930670054F
:1023A0002380D704930680FA2380D704010001001C
:1023B00018C103C7170313670704A388E702238024
:1023C00007040100010073900580410182807D13A4
:1023D0003368E3039308E016630E08003368F303E1
:1023E0009308D016630808009378330093B8180058
:1023F0009388D81633081E01131E0801135E0E01C0
:10240000D1B56393E503054863860800014863037B
:1024100003002A8871087298FD15131E0801C20571
:10242000135E0E01C1817DBD13F8150063F4BF007A
:102430007908D5B713381800E5BF83C7F60293F7BC
:102440000708A307F1000346F10083C7F60293F7DC
:102450000708E394C7FE8347F10093F7F70FF1DF16
:10246000FDB5F3760480914763E2B7061797020043
:10247000130787DB8A05BA959C41BA978287B717FD
:10248000004003A7470B1345F5FF698F23AAE70A0E
:1024900003A7070B698F23A8E70A03A7070A798D0B
:1024A00023A0A70A25A0B717004003A6470B134790
:1024B000F5FF798E23AAC70A03A6070B518D23A81F
:1024C000A70A03A6070A718F23A0E70A7390068064
:1024D0008280B717004003A7470B498F23AAE70A5A
:1024E00003A7070B1345F5FF75B7B717004003A601
:1024F000470B1347F5FF718F23AAE70A03A7070AC3
:10250000598D79BFB717004003A7470B498FEDB727
:10251000B717004003D58700420541819377050432
:1025200091EB9377F5013755E801130505803345A5
:10253000F50282809377050C130700046397E70088
:102540009377F50137459C1CCDB72165130505D060
:102550008280B7F700E08847CC47828081473737D1
:102560000040A14663C4C700328582800345B7405E
:10257000E38EA6FE3385F500034505008507230499
:10258000A740CDB797070020938747E29C431727C2
:1025900000201307E7CD3E95636EE5001767002026
:1025A000130747866368A700170700202320A7E0CA
:1025B0003E858280FD57EDBF411122C406C62A84A4
:1025C000813F2947B307E502B2408D83B3D7870225
:1025D00022449507B3D7E70237370040C207C183CB
:1025E0002316F740410182807165411113050520D2
:1025F00006C6D937B7370040130770F82381E74084
:102600000D47A381E74013070004A380E740054777
:102610002387E740B24041018280CC41411106C688
:10262000328503C6150083C5050022064D8E42067D
:102630008D654186138875A2630C060F6348C80434
:10264000138845A26306060B634AC800938535A22A
:102650006309B60623900600294679A0138855A27F
:102660006308060B938565A2E316B6FEC1451D46B9
:1026700063ECE5064546198E63F3C7003E8623905A
:10268000C60097950200938565BC89A8138895A21A
:102690006300060F634E060B1388A5A2630A060F9C
:1026A000938505A5E318B6FA99451D4663EEE50244
:1026B000198E63F3C7003E862390C6009385C180C0
:1026C00031A89D451D4663E1E5022146198E63F35D
:1026D000C7003E862390C60093854187BA9597E050
:1026E000FF1FE78060100146B240328541018280C1
:1026F000AD451D46E3EAE5FE3146198E63F3C7009A
:102700003E862390C600979502009385E5B7F9B7FA
:10271000B1451D46E3EAE5FC3546198E63F3C70073
:102720003E862390C600979502009385E5B67DB757
:10273000C1451D46E3EAE5FA4546198E63F3C70035
:102740003E862390C60097950200938565B179B7C0
:10275000C1451D46E3EAE5F84546198E63F3C70017
:102760003E862390C600979502009385E5B3BDB7DA
:10277000C1451D46E3EAE5F64546198E63F3C700F9
:102780003E862390C600979502009385A5AEB9B703
:10279000B5451D46E3EAE5F43946198E63F3C700F3
:1027A0003E862390C60097950200938525A93DB7E4
:1027B000970600209386C68C4146CD4517F5FF1F2E
:1027C000130505796F90305F2D453DEF03C505007A
:1027D00009476317E5063285D041411106C6034714
:1027E00016000346060041682207518F130628FE93
:1027F0006308C7026369E6000518630307032390B3
:10280000060029451DA8130648FE630BC7001518CE
:10281000E31707FF15473E866377F700154621A0AB
:102820003E8691C30546CC452390C60042064182B0
:1028300097E0FF1FE78040FB0145B24041018280E5
:102840002390060005458280828083C7850093F728
:102850000702DDE7411106C622C403C40500894E04
:102860002E888547631AD40383AE4500B28883C798
:102870001E0083CE0E00A207B3E7D701C16E138FEF
:102880001EFE6380E7038D1E6387D7050D6813085E
:10289000289063810707A947B24022443E85410141
:1028A0008280AD4775FB0547B547E367D7FE032533
:1028B000C8000546C68597E0FF1FE780E0F20144A7
:1028C000938781899843814761DB184371D72285BB
:1028D00002978147D1B7AD4761F30547B547E36D2F
:1028E000D7FA0325C8000546C68597E0FF1FE78095
:1028F000A0EFF9B72244B240854741016F80A00D97
:10290000A1473E85828041677917630CE50241113A
:1029100022C406C685472A84639AF500228522448C
:10292000B2409385C18841016F90D0538947639627
:10293000F5008545EFC0C00E75D1B240224441017B
:1029400082808280411122C42A8441659385C18896
:102950007D1506C6EF901051170500001305E5FA26
:102960000588EFC0200305C02244B240970600202E
:102970009386C6824146C54517F5FF1F13050571AD
:1029800041016F905043B240224401454101828091
:1029900009C523ACA1880145828045458280114745
:1029A000636EA70697960200938646910A053695B0
:1029B0001841411106C63697AE87B2850287054792
:1029C0006145639AE70005461385C18797E0FF1FBD
:1029D000E78080E10145B2404101828005476145C1
:1029E000E39BE7FE054613850188CDB705476145A2
:1029F000E393E7FE054613854188C9BF0547614556
:102A0000E39BE7FC054613858188C9B715476145F7
:102A1000E393E7FC1546138501894DBF0945828084
:102A20001147636AA704AA87179702001307478A0A
:102A30008A07BA979C43411106C6BA972E858287AA
:102A400005469385C18797E0FF1FE780E0D9B24034
:102A5000014541018280054693850188EDB7054611
:102A600093854188CDB7054693858188E9BF154692
:102A700093850189C9BF09458280411122C42E84F2
:102A80009385C18826C206C6AA84EF70906F058917
:102A900015C197F7FF1F9387675F83D7A70BA285A1
:102AA000B2402310F400224426859244014641019D
:102AB0006F80104AB24022449244494541018280CD
:102AC000411193962500AA852D4506C697E0FF1F64
:102AD000E780E09AB240014541018280411126C25F
:102AE0009394250022C44AC02A843289A686AA85E6
:102AF0000146254506C697E0FF1FE7804098A68659
:102B00004A86A285294597E0FF1FE7804097B2409B
:102B1000224492440249014541018280011122CCA4
:102B200006CE3714004026CA4AC84EC652C4834453
:102B30007405034AB4058349840503499405EFF0FD
:102B40008FD68347A40593F4F40F137AFA0F93E713
:102B50001700230DF40493F9F90F1379F90FB71740
:102B6000004003C7A705058B6DFF03D5C705A38DDF
:102B70004705238C3705A38C2705A38B9704F240C8
:102B80006244D2444249B249224A056182804111DD
:102B90009397050122C406C6C1872E8463DD070012
:102BA000EF00D07519C1EF00506E2165218DB24044
:102BB00022444101828093F7150013C51500E5FBFF
:102BC0009397250163D20708EF606175B71700403E
:102BD00083C7E70293F7C70F93E7170073270080B7
:102BE000218B9386018709CB7327008023A8E18678
:102BF00098425D9B73100780010001003717004069
:102C0000130670052300C704130680FA2300C704C7
:102C1000010001002307F702230007047327008047
:102C20009C42A18BD98F7390078023A80186010055
:102C3000010037F60200130606E0896503C5C18965
:102C4000EF10C03709659DB7939715010145E3D093
:102C500007F6178502001305656DEF7062441306D1
:102C60000064916503C5C189EF10403511653DBF12
:102C70001D714946978502009385C5661795020028
:102C8000130505D086CE97E0FF1FE780E0BE01E97F
:102C90001785020013054566EF70824001A0B7F664
:102CA00000E0795798CAFD57DCCA0567B7E700E02E
:102CB00023A0E7101306F00290C223A0E71801003A
:102CC00001001306C0038145480897E0FF1FE78015
:102CD00020B597070020938767873ECA8967938747
:102CE0000780231CF100A167938707E03ECEB7075A
:102CF0000105938707103ED0ED472312F102854767
:102D00002303F102970700009387C7DBBEC4970730
:102D100000009387E7DCBEC6B7F507009707000001
:102D20009387678335473EDA81469707000093878C
:102D300027DF7000E10519452304E102A305E10244
:102D40003EDE97D0FF1FE780807358088147994681
:102D500070003E960346060085070507A30CC700D2
:102D6000E398D7FED24791C7035781018567637304
:102D7000F70001A04808EF10207EAA8501C9178539
:102D800002001305A558EF70022001A0F64025614E
:102D900082804111170500001305A5DF06C622C475
:102DA000EF10C0771384C1892300A40019280345BC
:102DB00004002244B24013060032896541016F10BD
:102DC000E01F4111014506C6EFF0AFCAEFF04FC05A
:102DD00011E101A01305407E814701478146054668
:102DE0008545EFF00FCDB240014541016F10702BCA
:102DF00041111305800406C697D0FF1FE780A02964
:102E0000B7170040130700209386870A2FA7E640D4
:102E100083A7870A8D4513050020EFF08FE4EFF0BC
:102E2000AFFC179502001305A5B5EF706227893531
:102E30008D37EFC0D168EFC0916FEF00702BEF00BE
:102E4000A06D97D0FF1FE780405741111785020002
:102E50001305C56F06C6EF700213B2408547A38302
:102E6000F18A41018280B305B04017850200130545
:102E7000A5786F704211011122CC36C606CE2E8481
:102E8000EF001068B24637460F001306062433766B
:102E9000C50291CAB285178502001305E57432C6D2
:102EA000EF70620E324622856244F2408145056130
:102EB0006FB0014E81E9B285178502001305C56B1D
:102EC0006F70620C8547639DF5001785020013053E
:102ED000E56B09C6178502001305456C6F70421C2F
:102EE00089476398F500178502001305256C7DD688
:102EF00082808D47E39EF5FE178502001305056C61
:102F000071DEB285178502001305856C55BF01116E
:102F100022CC26CA4AC84EC606CEAA892E8981442A
:102F200017140020130484E203C5818A63E3A40616
:102F30000E050905CE852295194697E0FF1FE7800B
:102F4000A08A83C5818A93973500850593F5F50F8F
:102F5000A2971386F5FFA38027010E0622962384ED
:102F6000B18A62448348760003486600834756006E
:102F70000347460083463600F240D2444249B249F4
:102F800003462600178502001305454C05616F6056
:102F9000927F9395340089051946A2954E8597E056
:102FA000FF1FE780608D09E5850493F4F40FADBF42
:102FB000F2406244D2444249B2490561828079714B
:102FC0009397050126D206D622D44AD0C187AE8473
:102FD00063DE071E03C5E18AEF0050322A8415C55F
:102FE000034705009307000B631EF70083C7918A10
:102FF000094783454500130985006380E7024A8538
:10300000EF60B0442285EF0050282165258DB25035
:10301000225492540259456182800D476381E50232
:1030200005476390E50203478500631AF70283456D
:10303000C5001785020013056534EF60D274A383C1
:10304000018A034744009307F007631AF70083558A
:103050008400178502001305E533EF60D2728347C1
:1030600044002D476387E7020547639CE702034757
:103070008400A9466311D7048345C4001785020064
:1030800013050532EF603270A383018A8345440043
:10309000BDB75C44178502001305853183C5070061
:1030A000D5B74D476393E7029305A0051785020046
:1030B00013054532C1BFC9466316D7028345C40014
:1030C000178502001305C52F75BF6D47639CE70088
:1030D0005C44178502001305E53083C50700EF60E7
:1030E000926A6DB703C7618A55D385466319D708BD
:1030F0001D47639CE7028357840085CB5C4417859A
:1031000002001305652F83C5170003C6370003C7E8
:10311000070083C72700A2052206D98D5D8E23965E
:10312000B18A2395C18AEF601266834744001D4728
:103130006395E70403471400E947E399E7F483D76D
:10314000C18AA9D72314F1009387A18A83D70700E6
:10315000094703C6E18A2315F100F9779387271001
:103160002316F1002C00FD5703D521822383E18A29
:103170002307F100EF60405E11BF05477DBF894620
:10318000E316D7F025476390E7048357840085CF83
:103190005844930500021306006483471700034751
:1031A000070003C5E18AA207D98F2392F18AA3837E
:1031B000018AEF00B06083D5418A178502001305AC
:1031C0006526EF60525C2383018AC9B593F7150029
:1031D00085C317F6FF1F1306260497F5FF1F938577
:1031E000E50203C5E18AEF90D17813C5140005B557
:1031F00093F7050881CB41657D15EFC0112A13C5F2
:10320000040831B593F7850085CB81572314F1006D
:103210002392018A2395018A2396018A854783C6D2
:10322000E18A09462C0003D521822383F18AEF60CD
:10323000E07013C58400E1BB93F7050191CF13073C
:103240008025814613064006D14503D52182EFC073
:10325000512413C5040165BB93F70502CDC383C791
:10326000718AA5E703C7418283D7418A03D52182AA
:103270002DC72314F1000147854781460546C945FE
:10328000231801002315F100EF6000552AC615CD63
:103290009307A0052300F50003C6E18A2C0003D59F
:1032A0002182EF60E04B0DE58547A383F18A83C758
:1032B000418293B71700130600649305000203C50B
:1032C000E18A2382F182EF00704F13C5040281B3BB
:1032D000C9452800EF607017CDBF03C6E18A2C00F6
:1032E0002314F100EF6000476DF18547A383F18A55
:1032F00083C7418293B717002382F182F9B793F70E
:1033000005040145E38507D003D52182EFC03118BC
:103310000566130606969305000403C5E18AEF00CF
:10332000F04913C50404E5B18347250049476364A8
:10333000F71E178702001307A7FF8A07BA979C4357
:10334000011122CC06CE26CA4AC8BA972A8482879F
:1033500005041374F40F83C7818A637DF400931509
:10336000340089051946A6954A8597D0FF1FE78046
:10337000A05079DD83C7818A639E8702178502008A
:103380001305C511EF60D251014685450D452384D3
:10339000018AEF901167178502001305250FEF6072
:1033A0003250F5A00144971400209384249A138985
:1033B000C18155B7178502001305850FEF60524E86
:1033C00097170020938787980E04930624003E9455
:1033D00003461400BE9681450145EF90315F0566B6
:1033E000130606C89305000803C5E18AEF00103DE7
:1033F000178502001305C50C5DB79305000803C5CA
:10340000E18AEF00D05D83451400B9ED0355A400B7
:103410008947A384F18A2391A1828547A383F18AF6
:1034200003C6E18ADD476C002316F100EF606028D7
:1034300013060064A14503C5E18AEF003038056436
:10344000130604C8C14503C5E18AEF0030371306EF
:1034500004969305000403C5E18AEF003036178512
:1034600002001305E50625BF178502001305450771
:10347000EF6072311785020013054501EF6052427B
:103480002384018A014685450D45EF909157F2400E
:103490006244D244424905618280A384018AF9577B
:1034A0009305000403C5E18A2391F1822383018AF5
:1034B0002392018A2384018AA383018AEF00305278
:1034C000834564001785020013054503EF60B22BA6
:1034D00017850200130585FBEF60923C65B71785E1
:1034E00002001305650365BD178502001305C503BA
:1034F000EF60123B03C7818AA547E3EAE7F88345FB
:10350000440013055400EFF09FA051B71785020047
:1035100013058502F1BF8280011117050000130514
:1035200045AA06CE22CCEF00707F1384E18A856520
:103530002300A400938505960945EF201063D1452B
:103540001D45EF209062930540062145EF20F06174
:10355000930540063545EF20506185470D477000C3
:1035600091451305F0402304F100A304F100230565
:10357000E100A305F10002C6EFB021083000854547
:1035800013058040EFB061071306910085451305D0
:103590009040EFB081061306A10085451305A040B9
:1035A000EFB0A1051306B10085451305D040EFB07B
:1035B000C104EF70601A03450400EF6050467D556A
:1035C000EF5090507D55EF90C0061786020013060D
:1035D00066EAD5450145EF50D03D034504008545D9
:1035E000EF00D005F2406244056182802A86B3056F
:1035F000B040178502001305A5046F60D2180111B1
:1036000006CE19C50947630FE500F24005618280C7
:103610006C00EFF0EFC0178502001305A50EEF60F8
:103620003228E5B76C00EFF0AFBF17850200130535
:10363000250FF5B783D7018B6390A7022399B18A31
:10364000239AC18A239BD18A2E86178502001305EF
:1036500025FDBE856F603213178502001305C5FD79
:103660006F60122403574500011106CE83D7018BEA
:10367000631FF702C167F917894503C5C18223A8F3
:10368000F18A23AA018AEF009035914503C5C182D2
:10369000EF00F03485471306F100854513055030DF
:1036A000A307F100EFC0C12CF240056182801785AD
:1036B0000200130565F8EF60B21EFDB73D897D1568
:1036C000954763EDA712178702001307E7F30A0572
:1036D0003A951C41411122C406C6BA972E848287AE
:1036E00017850200130545F72244B24041016F607F
:1036F000321B03C725009947631CF7002E859D37B1
:103700008345640017850200130505F6EF60B207D4
:1037100017850200130505F7C1BF03C725009547AC
:103720006312F702C16703D7018BF91703D5A50010
:10373000630FF700EFC0615617850200130585F58A
:10374000EF60121617850200130545F771BF239825
:10375000A18A83D7E5001306006403C5C1822399BB
:10376000F18A83D70501239AF18A83D725018945F8
:10377000239BF18AEF009004096613060690A14589
:1037800003C5C182EF0090030566130606C8914584
:1037900003C5C182EF0090020356E4008355A400E4
:1037A00017850200130545F0EF60E27D61BF1785C4
:1037B0000200130565F10DBF83C72500114717856A
:1037C00002001305E5F1E381E7F219476394E7028C
:1037D0002E85493D834564002244B240178502008E
:1037E000130585E841016F60027A17850200130511
:1037F000E5F0DDBDB24022444101828082800111AA
:103800009397050122CC06CEC1872E8463DD070085
:1038100003C5C182E52411C18D2C2165218DF240A3
:1038200062440561828093F7150085C317F6FF1F78
:103830001306469F970500209385455603C5C18210
:10384000EFB0515F13451400D9BF93F72500A9CFFE
:1038500013060064894503C5C182EF0020769307F3
:1038600080F82302F1000147854781460546ED4572
:1038700003D5018B2315F100EF5010762AC615C130
:103880000356A1004C0097D0FF1FE780E0F52C0005
:1038900003D5018BEFF06F9E09C5ED452800EF6061
:1038A000C03A13452400A5BF93F7850085C383C79D
:1038B000C18213074006814613064006D14503D551
:1038C000018BEFB091501345840091BF93F74500F1
:1038D0000145B1D703D5018BEFC0613B05661306E7
:1038E00006C8914503C5C182D12D1345440005BFCB
:1038F0007971170500001305C5F006D622D426D22B
:10390000EF00D0419384C182D14705442380A400B5
:10391000231AF1001008930740068545130550301F
:10392000231CF10023088100EFC0810417F6FF1F5C
:1039300013068691F14513057030EFC061031386BD
:1039400001839D4513056030EFC081025008894511
:1039500013051031EFC0C10130088945130520312E
:10396000EFC00101930500050D45EF2010209305E0
:1039700000051145EF20701F300891451305704078
:1039800023048100230681002308810002CC230A3E
:103990000100EFA091463000854513050040EFA0DF
:1039A000D1457000854513051040EFA01145500822
:1039B000854513052040EFA05144100885451305A7
:1039C0005040EFA091437D55EF5010107D55EF8092
:1039D0005046EFE0FFDD7D55EFE0DFF617F6FF1F05
:1039E00013060685D5450145EF50A07C894723067F
:1039F000F1008D472308F1009147230AF1009387D6
:103A00008186984383C747003000854501453ACCFD
:103A1000230EF10023048100EFE07FF8700085455C
:103A20000545EFE0DFF7100885450945EFE03FF772
:103A3000500885450D45EFE09FF630089545114546
:103A4000EFE0FFF5C1671387018BF9171CC3232231
:103A5000070013858182EFE0BFF303C504008545AD
:103A6000F12EB250225492544561828023AC05FE5F
:103A70001C4191E7010001000CC18280BA8703A7B5
:103A800087FF6DFF23ACB7FE82801DC18346E5FF33
:103A90001307F00F9147639EE600411106C697E0B9
:103AA000FF1FE78080C9B24081473E854101828087
:103AB00095473E85828001E9014582800145B240FB
:103AC00022444101828095654111938505D022C42D
:103AD000C98D2A842105C2054205C181418106C6DE
:103AE00097E0FF1FE78040B871D9FD5723200500FC
:103AF000231285002303F5002105D1B71707002005
:103B00001307472F1C43411122C426C24AC006C6D0
:103B100001440149BA8489E7A165D1251DC401A8E2
:103B200003C7E7FF631AA7020DCCA165012E9840D9
:103B3000832784FF6319E40217070020232CF72A48
:103B4000FD57232C04FE230FF4FE2285B2402244AD
:103B5000924402494101828011E03E8983A787FF98
:103B60005DBF3E84E5BF232CF9FED9BFB1CD411125
:103B700022C406C62A849707002083C7F7272E850C
:103B80006375F400894763E8870001370D45B2404B
:103B900022444101828083A785FF99E703C7E5FF9F
:103BA0009307F00F6305F700CD351545CDB7238F8B
:103BB00085FE170500201305E5234D3D228522448F
:103BC000B240A16541019DAC154582809707002058
:103BD00023A20722828097070020938727279C43F0
:103BE00099E33E85828003D727006316B70003C799
:103BF0000700E308A7FEDC47E5B7C9C1797122D405
:103C000006D626D24AD04ECE01444147B3D785408E
:103C1000858BA5C31205314722953305E502970729
:103C200000209387A72603A907008544B394840046
:103C3000C204C180BE892A990327090011C7032540
:103C400049002EC60297B24531473304E40283A7E8
:103C500009003E941C4489E723200900232209001F
:103C6000B2502254A58D02599254F2492E854561D5
:103C700082800504E31CE4F88144DDB72E85828050
:103C800041111397050122C406C626C24AC04187C6
:103C90002E84635E07009D3511C1C53BA1673D8C35
:103CA0002285B24022449244024941018280EDD9EA
:103CB000AA8701474146B356E440858A8DCE9207D4
:103CC000BA97B146B387D702970600209386061CA1
:103CD00003A906008544B394E400C204C1803E9960
:103CE0008327090003254900829723200900232206
:103CF0000900258C75B70507E31FC7FA8144D5BFB6
:103D0000970700209387C7149C53411122C406C60D
:103D10001384818399C782971C403E9523ACA1826E
:103D200039A0970700209387E7119C43EDF70840DF
:103D3000B74703009387D73F3305F502B7A726009F
:103D4000938737ECB24022443E9523ACA1824101D7
:103D500082807DC1970700209387C70E9C437971AD
:103D600022D426D24AD04ECE52CC56CA5AC806D6F3
:103D70005EC63A8AB689328BAE8A2A8982979707BD
:103D800000209387A7109843BE840144B146C147E1
:103D9000B30BD40233067701104251EAC165938513
:103DA00005F0414597E0FF1FE780008C1DE5970770
:103DB00000209387E7099C5B2D4589C71145814504
:103DC00082972D45B250225492540259F249624AC8
:103DD000D24A424BB24B45618280970700209387BD
:103DE000E706984329E39707002023A1A7062300AD
:103DF00005009C4005473317870023260500232430
:103E000065012311E50023224501DE9723A0270148
:103E100023A2570123A447010145E38509FA238022
:103E200089004DB73E875C47F5FF48C7C9B7050411
:103E3000E310F4F6214579B7094582809707002001
:103E400083C797FB6371F502170700201307C7FFAD
:103E50009317150008433E9583570500DD8D231009
:103E6000B500014582800D4582809707002083C7F9
:103E7000B7F86373F502170700201307E7FC9317E1
:103E80001500084393C5F5FF3E9583570500FD8D4A
:103E90002310B500014582800D458280130705FF80
:103EA0001377F70FFD4763E9E70AB146B306D5027A
:103EB00097070020938787FD9843894736971843D3
:103EC00049CF011122CC4EC60544935945003D8986
:103ED0003315A40013140501418026CA4E85AE8413
:103EE000A2854AC806CEC5392A89814731CDA28527
:103EF0004E85A53F970700209387C7F49C43829780
:103F00009707002083D787F9338797022A84814651
:103F100013060064B3B7970213050732B335E50003
:103F2000BE95EF507241B307850097060020938637
:103F300066F63E87D44263E4A70063E4D700338784
:103F4000D7402324E9008147F2406244D2444249E9
:103F5000B2493E850561828089473E858280011194
:103F600026CA06CE22CC4AC84EC6BD47894463EF56
:103F7000A70231473307E50297070020938707F12F
:103F80009C438944BA979C4395C305443314A400C9
:103F9000420441802E890145A2853539AA89814490
:103FA00011C5A2850145D13523A42901F2406244FF
:103FB00026854249D244B249056182809707002094
:103FC00083C797E36364F500014582800111970779
:103FD0000020938727E756C283AA070006CE22CC8B
:103FE00026CA4AC84EC652C4638D0A0A170A002060
:103FF000130A4AEA83244A00B74736FE938707C864
:10400000AE899705002083D565E9BE94B387C502C4
:104010002A8432898146B3B5C50213850732B33786
:10402000F50013060064BE95EF50123163EBA40651
:10403000829A9705002083D565E6B3872503AA8475
:10404000130600648146B3B5250313850732B337E1
:10405000F500BE95EF50522EB3079500BE8403279E
:104060004A0063E4A70063E4E700B384E740CE8539
:104070002285953601C504C505452DA0936504F03C
:10408000C205C181414597D0FF1FE780E05D05E58E
:10409000970700209387C7DB9C5B81C7A2851145EA
:1040A00082970145F2406244D2444249B249224AD1
:1040B000924A0561828097070020938727D99C4305
:1040C0009DE39707002023A3A7D885472326050053
:1040D00004C52311350123008500A300F500232228
:1040E000050059BFBA87D84775FFC8C7F9BF59C976
:1040F000797122D426D24AD04ECE52CC56CA5EC650
:1041000062C466C206D65AC83689328AAE89AA8483
:104110004144314C970A0020938A4AD7854C930B2F
:104120000003330B840303A70A005A971C43B1E72B
:104130009375F400B395BC0013554440C2055286F4
:10414000C1811375F50F9D3D0DC983A70A00014577
:10415000DA9784C323A2370163040900230089008E
:10416000B250225492540259F249624AD24A424B06
:10417000B24B224C924C456182800504E31374FBE0
:104180002145F9BF09458280411122C426C24AC097
:1041900006C62A842E89B2841535CA852285EFF099
:1041A0009FA305CD9705002083D545CFB387950202
:1041B0002A84130600648146B3B59502138507323D
:1041C000B337F500BE95EF50321748C00145B240F5
:1041D000224492440249410182802145CDBF4111D0
:1041E00022C426C24AC006C62A892E84EFF0BF9E8A
:1041F000AA8419C123110500A2854A85BD319707FC
:10420000002083C767BF639B27019707002083D7E0
:1042100027C35D8C97070020239487C2014591E056
:104220001945B240224492440249410182809307D9
:10423000F00263E8A7044111B14722C43304F50238
:1042400026C297040020938464C49C4006C6A297AB
:10425000984389470DC39377F5008545B395F500DD
:10426000C205C1811181A53F9C40A29723A00700F0
:1042700023A207008147B240224492443E85410177
:10428000828089473E858280411106C622C4EFF0B4
:104290009F9411E50145B240224441018280970775
:1042A0000020938727BA9C430045829797070020F8
:1042B000938747BE6368A402D843B74636FE938609
:1042C00006C83305A4403697E376E5FC130700647F
:1042D000B335E50203D6870081463305E502EF508A
:1042E000B20555BFD8433A94C1BF411122C426C27A
:1042F00017040020130404BA970400209384C4AF69
:1043000094485840970700209387C7B306C69C433C
:104310006393E60882975440B74736FE938707C8F1
:10432000B6973387A7003A856364F7006364D700C4
:104330003305D74097040020938444CF9C4C81CF11
:1043400097070020938787D594433707CDFF7D17C4
:104350009C46F98F9CC611E148409707002093873F
:1043600027AFDC53829719E59C4C8DC3EF50A11108
:10437000EF4021679C4C99CB97070020938707D289
:104380009843B70633001C47D58F1CC7B240224460
:10439000924441018280829798489707002083C702
:1043A00077AC54401D8FB307A7003E8563E4E70058
:1043B000E3E2D7F83385D740B5BF411106C697076A
:1043C000002023A7A7AC0295B2409707002023A1A5
:1043D000A7A4014541018280994763E9B7008A0596
:1043E00097070020938707A4BE9588C1828041115A
:1043F00071468145170500201305C5A206C697071B
:10440000002023A507A49707002023A307A8970748
:10441000002023A907A297C0FF1FE7806040130672
:1044200080028145170500201305059D97C0FF1FD9
:10443000E780003FEFB0D11A9707002083C7B7A2EB
:1044400013D527008D8B3E958D473305F5028545A5
:1044500039051375F50F970700202380A79A994710
:104460003305F5021305052497D0FF1FE780C01F11
:1044700017070020232CA7A059CD99471706002025
:104480000346A6973306F60281451306062497C015
:10449000FF1FE780E038970700209387279F9C4302
:1044A0009387072417070020232CF796170700206F
:1044B0000347A7940A07BA97170700202326F798FF
:1044C000EFF0CFF0052B9707002093876795944373
:1044D0009707002083C7579213972700369717F640
:1044E000FFFF1306C67110C3138717001377F70F6A
:1044F0000A07369717F6FFFF1306C67810C313870F
:104500003700890793F7F70F8A0797050020A385DF
:10451000E58EB69790C3B240410182809707002094
:1045200083C7978D170700200347278D63F3E702A2
:10453000170700201307C78E184393861700170626
:104540000020A30BD68A93962700369708C33E8592
:1045500082809307F00FE5BF1C41638A07164177FD
:104560007D8FB706002089476314D716035745008F
:1045700063000716411122C419462A849305F00FDF
:10458000690506C697C0FF1FE780A03305478D4722
:10459000630AE5121C4481CB5858994763040712FB
:1045A000185C630107121306C0038145170500203C
:1045B0001305058A97C0FF1FE78080261306C003F6
:1045C000A285170500201305A58897C0FF1FE78067
:1045D000A0211707002003576788970700209387BB
:1045E000278719E713070010970600202398E6860F
:1045F000170700200347A78611E705479706002005
:10460000238FE684170700200357878511E76D473E
:10461000970600202396E684170700200347378477
:1046200011E7154797060020A38BE68217070020A5
:104630000347278311E70547970600202383E68277
:10464000170700200347F78119E703C7F70097060C
:104650000020A388E680170700200347A78011E702
:10466000354797F6FF1F238FE67E17F7FF1F034797
:10467000B77F19E71307800297F6FF1FA386E67E30
:1046800017F7FF1F0347177E19E71307D00297F6A6
:10469000FF1FA389E67C0347840119E71307C003C2
:1046A00097F6FF1F2382E67C9C5791C7829797F766
:1046B000FF1F2397A774FD5717070020A302F7A435
:1046C0003D338147B24022443E8541018280894783
:1046D0003E85828001114EC697F9FF1F9389897B21
:1046E00083A7090006CE22CC26CA4AC852C48297A4
:1046F00013090064B335250303DA89008146528625
:1047000033052503EF50424397F7FF1F9387C76E8A
:10471000804FAA8401456306940233858440636E0A
:10472000940003A5490052868146B335A90233059A
:10473000A902EF506240018D269597F7FF1F23A92C
:10474000976CF2406244D2444249B249224A056120
:104750008280011122CC0A852E8441469775020081
:10476000938585AB06CEEF50A276180806043A94DE
:10477000035504FF97F7FF1F83D76772F240624427
:10478000AA9737450F00130505243355F502056137
:10479000828097F7FF1F83D7877051471D45637C41
:1047A000F702794719456378F70213072003154587
:1047B0006373F7021307B0041145637EF700130714
:1047C00040060D456379F7001307600909456374D6
:1047D000F70013B5B70F8280011122CC06CE2A84D0
:1047E0002EC6EFF0EFD1B245F240818D33A5A50280
:1047F000229562441375F50F05618280011122CC68
:1048000006CE2A842EC6EFF0AFCFB245F240818D9E
:1048100033A5A5022295624442054181056182804B
:10482000011122CC06CE2A842EC6EFF06FCDB24500
:10483000F240818D33B5A5022295624405618280E4
:1048400097F7FF1F9387C760985739CB411122C450
:1048500026C206C6BE84029717F7FF1F0357475AA2
:104860002A8415CBBA876373A700AA87C207C183BE
:10487000BA866373E400A286C206C182958F51474F
:10488000635BF700DC5491C38297EF40512997F79F
:10489000FF1F23978756B2402244924441018280F1
:1048A000828097F7FF1F9387A75ADC57011106CE26
:1048B000AA8581C72AC68297B245C1C59C410545D4
:1048C000B5CFDC41A5CF83D78500ADCB83D7A5007D
:1048D000B5C783C7C500BDE3414617F5FF1F1305E4
:1048E000655B97C0FF1FE78020F097F7FF1F938756
:1048F000675A9C4317F7FF1F2326F75497F7FF1FAC
:1049000083C797568DE79307800217F5FF1F03555E
:10491000E5583305F50237460F0013060624814695
:104920008145EF50622197F7FF1FA38FA75217050C
:104930000000130565DAEFF05FA80145F24005615C
:10494000828097F7FF1F83C70752139787016187FC
:104950006354070497F7FF1F23AE074A97C7FF1F4B
:104960009387872B17F7FF1F2326F7527D5797F75B
:10497000FF1F23A3E752B7873200938727A197F63B
:10498000FF1F23ADF65097F7FF1F238B0750B7C7C4
:10499000004023A4E72691BF13F7170005CFB78780
:1049A0002003938707D017F7FF1F2329F74EB70778
:1049B000C0A817F7FF1F2321F74E97C7FF1F938744
:1049C000C72817F7FF1F2327F74C97F7FF1F2389E7
:1049D000074C21BF617797F6FF1F2391E64C81CBEF
:1049E0009307003217F7FF1F231BF74AC9B7930736
:1049F0002003CDBF011122CC17F4FF1F130444453F
:104A0000084406CE26CA4AC801E90545F240624478
:104A1000D2444249056182805C58E5DB185C75D759
:104A20007000854582971844B247E300F7FE93056E
:104A3000E00417F5FF1F0355654297D0FF1FE7807D
:104A4000A0C217F7FF1F2329A73C61D117F6FF1F4C
:104A50000356C6409305F00F97C0FF1FE78040DC68
:104A6000814417F9FF1F1309293997F7FF1F83C7DF
:104A7000073F0326090263C1F402328597D0FF1F66
:104A8000E780A0CB014597F7FF1F23A7073897F7CB
:104A9000FF1F23A507389DBF97F5FF1F83D5053C52
:104AA000B38795020844185C898185043E9508C245
:104AB000029765BF011156C297FAFF1F938A4A39C0
:104AC00083A78A0022CC4AC84EC606CE26CA52C444
:104AD0005AC0AA892E8432896385072203A74A0314
:104AE000630707147D476366A71497F4FF1F938439
:104AF000A43003AA040263170A0A9565938515E09A
:104B000017F5FF1F0355853597D0FF1FE780C0B508
:104B100097F7FF1F23A2A7302A86630A051083A7F1
:104B20004A0303A58A0097F5FF1F83D525338981A2
:104B3000829783A78A0003AA040217F7FF1F232F77
:104B4000F72C8947639CF908C1476312F40E97F567
:104B5000FF1F83D5A530938505FC9147B3C5F502AA
:104B60008A05D29503C705009307A005631DF70AC0
:104B700083C715006399370B4A852286910597C034
:104B8000FF1FE78060C69C5052856393471501451F
:104B9000F2406244D2444249B249224A924A024B0C
:104BA00005618280D850E38EE7F89565938525E00E
:104BB00017F5FF1F0355852A97D0FF1FE780C0AA6E
:104BC0002A8A35C52A8683A74A0303A58A0097F552
:104BD000FF1F83D5A52889818297A5B78D47639D3F
:104BE000F900C1476315F40497F5FF1F83D5052726
:104BF000938545FDF199B5B79147639AF90063181C
:104C0000340397F5FF1F83D56525A115E5B7C14787
:104C1000639FF900A14763EC870097F5FF1F83D5D9
:104C2000E523C115C1BF9C5052856397470D2945A7
:104C300085B71307F006568B6361A70A130A05FEB2
:104C40001947334AEA0217F7FF1F0357272197FA3C
:104C5000FF1F938A6A1A330AEA023E9A83A74A021E
:104C60006395470183A40A029DE49305E00417F5C8
:104C7000FF1F0355A51E97D0FF1FE780E09EAA8463
:104C80005DD583274B0397F5FF1F83D5251D2A8606
:104C900089815285829791451307A0058981939751
:104CA0002500A69783C607006393E60483C6170012
:104CB000639C360385058A052286A6954A8597C09A
:104CC000FF1FE78060B283A70A02E38297EC268584
:104CD00097D0FF1FE78060A65DBD1307E007E3687C
:104CE000A7F4130A05F985B783D5270045BF83A725
:104CF0000A02E38E97F2268597D0FF1FE780E0A394
:104D00003DB797F7FF1F9387270F8C538DD191479E
:104D10009306A0058983139727002E970346070063
:104D2000E317D6F003461700631C360185078A0790
:104D30002286BE954A8597C0FF1FE780E0AA81BD05
:104D400083572700C1BF97F7FF1F938767109847C6
:104D500039C79C5FA9C705476313E504411122C405
:104D600017F4FF1F13044409105006C60DC648501F
:104D700097F5FF1F83D5850E89818297085097D0BC
:104D8000FF1FE780809B97F7FF1F23A7070897F770
:104D9000FF1F23A50708B240224441018280828080
:104DA000011117F7FF1F1307A70A4EC683298700B3
:104DB00022CC26CA4AC806CE52C456C2AA842E8421
:104DC0003289638A09201C5FBA8A99EB2945F2402F
:104DD0006244D2444249B249224A924A05618280E1
:104DE0005C5BEDD7FD4763E9A70E97F9FF1F938939
:104DF000A90083A70902B1CB03A58A0083A74902B2
:104E00006395A70689476393F408C147E310F4FC50
:104E100017F5FF1F035585049147130505FC33451E
:104E2000F5029317250003A509022286CA853E953F
:104E30009307A0052300F500A3009500110597C076
:104E4000FF1FE780609A014559B79305E00417F505
:104E5000FF1F0355A50097D0FF1FE780E08097F75D
:104E6000FF1F23ABA7FA49F995B783A74A0303A607
:104E7000090297F5FF1F83D565FE8981829783A775
:104E80008A0017F7FF1F232BF7F8ADBF8D47639EEE
:104E9000F400C147E31CF4F217F5FF1F035505FCAE
:104EA000130545FD9377C5FFBDBF9147639AF40095
:104EB000E31E94F017F5FF1F035545FA2115DDB7E2
:104EC000C147E395F4F0A147E3E287F017F5FF1F30
:104ED0000355C5F84115F9B79307F00663EAA7062D
:104EE000930705FE1947B3C7E70217F7FF1F0357DC
:104EF000E7F617FAFF1F130A2AF0B387E702BE99F5
:104F000083270A02A9CF83274A02639A370703251A
:104F10000A0291461308A005FD5593D72600C20743
:104F2000C183139727002A9703460700631D0607CE
:104F3000834817000356270063959806B306D640AA
:104F400063CF860485078A072286CA853E95C5BD3C
:104F50009307E007E3ECA7E6930705F979B7930514
:104F6000E00417F5FF1F035565EF97C0FF1FE780AB
:104F7000A06F97F7FF1F23A1A7EA51F581BD83A773
:104F80004A0303260A0297F5FF1F83D525ED898181
:104F90004E85829797F7FF1F23A237E98DBFA300A5
:104FA000B700B2869DBFB385860017F6FF1F035674
:104FB000E6EA9105130606FCE3FAC5E013063400A1
:104FC0001376C60F1106B29623000701A3009700BF
:104FD0002311D70085BF97F7FF1F9387E7E194530D
:104FE000BE89A1C203A5090291461308A005FD557B
:104FF00093D72600C207C183139727002A97034639
:1050000007006316060583481700035627006398B8
:105010009800B306D640E3D786F2A300B700B28665
:10502000C1BF8357C70017F5FF1F034545E393052D
:10503000E0043305F5024205418197C0FF1FE78078
:10504000A06297F7FF1F23A9A7DC49FD41B317F61C
:10505000FF1F0356A6E097F5FF1F83C545E0B38504
:10506000C502338686001106E3E2C5D681BF01453D
:105070008280011106CE2EC6EF90500801C9B245BC
:10508000F2400355250005616FD0904AF240494532
:1050900005618280A380018E2380018E23A4018C70
:1050A00023A6018C23A8018C23AA018C23A2018CA6
:1050B00023A0018C97F7FF1F9387C7E09306403822
:1050C0002391D702F1761307400B938606B82391FC
:1050D000E7002392D70211679D461306000593054A
:1050E000000A1305007D2392E7002393D70241476E
:1050F0008546130810F82395E7002396E7002399C7
:10510000E700239AE700239BE700239CE700239412
:10511000E702239007002393B7002394B700239757
:10512000C7002398C700239DA700239E0700239F45
:105130000700239007022395D7022396070323979E
:1051400007029308F007239807022392E7042393AA
:10515000E704239FE7042390E7062391E7062392C1
:10516000E706239917031307C01C239AD702239B32
:10517000D702239C0702239D0702239E0702239F39
:105180000702239007042391D7042394070423954F
:1051900007042396D7042397C7042398C7042399A9
:1051A000A704239A0704239B0704239C0704239D39
:1051B000C704239EC7042393A706239407062395B9
:1051C0000706239607062397B7062398B706239961
:1051D0000706239AE7065147239DE7067D57239B41
:1051E0000706239C0706239ED706239F07062390C6
:1051F000070823910708239207092393E708828071
:10520000011126CAAA84214522CC06CE2E8432C69C
:1052100036C43AC2EFE03F8A1DC9A2461247324661
:10522000930700FD2300F5009947A3009500230193
:10523000F5002303D500A303E5002312C500AA85CA
:1052400022856244F240D24405616FE03F92F24011
:105250006244D2440561828023A4A18C828023A66B
:10526000A18C828023A8A18C828023AAA18C828019
:10527000011122CC4AC806CE26CA2A890144B304A9
:1052800089006368B400F2406244D2444249056137
:1052900082802EC6EFE0DFA693170501C183A183AC
:1052A000B2452380F4009307140093F7F70F8504A9
:1052B00063F9B700CA9709042380A7001374F40F99
:1052C0007DBF3E847DBFC16717F5FF1F0355E5BD58
:1052D000FD176304F502411117F6FF1F034686D23E
:1052E0009385818D06C6EF90603FB240FD5717F75A
:1052F000FF1F231CF7BA41018280828009C925154E
:105300001375F50F1335850E134515008280014581
:10531000828023900500C9C6797122D426D24ECE50
:1053200052CC5AC806D64AD056CA5EC63684328A8D
:10533000AE892A8B814463F34407B307940083C783
:105340000700138914004209939A070193DA0A01AE
:105350001359090163840A04CA976341FA04B30725
:10536000240183CB07005E85513F0DC99387FAFF67
:105370002390F90063906B03130519002295B25036
:10538000225492540259F249624AD24A424BB24BD9
:1053900045618280D694C204C18071BF0145C5B702
:1053A00001458280411126C2AE8422C497F7FF1FB7
:1053B00023A4C7B097F7FF1F23AEB7AE97F7FF1F21
:1053C00023A8A7AE2A8441469305F00F26854AC03C
:1053D00006C6054997B0FF1FE780A04E631025055C
:1053E00097F7FF1F938707AC884BC145513541465E
:1053F0009305F00F228597B0FF1FE780804C85440E
:1054000063189502224497F7FF1F9387A7A9B2401C
:1054100092440249C847C145410199BD4146814571
:10542000268597B0FF1FE780C049E31225FD4DBFD9
:1054300041468145228597B0FF1FE7808048E303FE
:1054400095FCB240224492440249410182804111BC
:1054500022C426C22E84AA8413060002814517F5B1
:10546000FF1F130525A406C697B0FF1FE780403B2A
:1054700097F7FF1FA38997A297F7FF1F238687B887
:10548000EFD0500D854719C181474945B2402244AC
:1054900017F7FF1F2308F7A092444101828081473C
:1054A00081CD19C98547631BF50083C7550093E774
:1054B00007FCA382F50085473E85828089476317F4
:1054C000F50083C7550093F7F703E5B70D47854708
:1054D000E314E5FE03C755001377F70313670704CA
:1054E000A382E500D1BF81478DC105C103C7550027
:1054F0009306000C85471377070C6308D7009306C3
:1055000000048D476303D70089473E85828041119F
:1055100022C4005D06C626C21DC8AA84085009C55B
:1055200097C0FF1FE7806021485009C597C0FF1F43
:10553000E780A020085409C597C0FF1FE780E01F3F
:10554000228597C0FF1FE780401F23AC0402B240B2
:10555000224492444101828009ED97F7FF1F83C7DF
:10556000879417F5FF1F1305659581CB1385818BF4
:10557000828017F5FF1F13056594828017F5FF1FC2
:1055800003456592828097F7FF1F9387A791C847CD
:10559000828097F7FF1F9387E790884B828097F769
:1055A000FF1F93872790DC4B8843828097F7FF1F6C
:1055B0009387478FD84B1C4385071CC317F5FF1FE4
:1055C0000345758E9307F00F6305F50091656FE055
:1055D000FF868280011122CC06CE2E8432C6EF9047
:1055E000A0429147B245631FF5009387418D9C43CC
:1055F0008DC303A30700630E030022856244F240BB
:10560000056102839387C18C9C4381C703A3470034
:10561000DDB7F2406244054505618280011122CC6C
:105620002A840355450006CE26CA4AC84EC6EF90C6
:10563000C01B35C52A89834405008349C500C13D87
:105640004A85EF90E07B03554400EF90203783C7F5
:10565000018EB1CB6399970483C5118E2685EFF037
:105660005FA119E12380018E03554400EF90C039FA
:105670009147631FF5000357440097F7FF1F83D737
:10568000C7826317F700FD5717F7FF1F231FF78027
:10569000F2406244D2444249B24905618280814964
:1056A0009304F00F6DB79307F00FE38FF4FA83467E
:1056B000640003564400034524004E87A685EFF09E
:1056C0003FB45DB779715EC6AA8B2E8552CC56CA9F
:1056D0005AC806D622D426D24AD04ECEAE8A328BB3
:1056E000368AEF9080107DC1045D2A89E5C09C5008
:1056F000614599C3130540039C5481C75105420578
:10570000418163050A00710542054181DC5081C772
:105710005D0542054181EFE00FBA2A8445C9614623
:10572000814597B0FF1FE780A00F97E9FF1F83C94E
:10573000697C6394090083490900930700FD2300F5
:10574000F400A947A30074012301F40023036401BA
:105750008C50231254011305840191C908C4714669
:10576000930A440397B0FF1FE780000856858C54C6
:1057700091C948C45146930A450197B0FF1FE7807D
:10578000A0065685630C0A0008C87146D285930AA4
:10579000C50197B0FF1FE78020055685CC5099C5FD
:1057A00048C85D4697B0FF1FE7800004A2854E857C
:1057B000EFE0CFBB2254B2509254F249624AD24A2F
:1057C000424BB24B4A850259456191B3B2502254C3
:1057D00092540259F249624AD24A424BB24B456155
:1057E000828001114EC6AA892E854AC806CE22CCD7
:1057F00026CA2E89EF80707F21C997E4FF1F83C4DA
:10580000646F99E0834405001945EFE0CFAA2A842C
:1058100005CD8145194697B0FF1FE78060009307CB
:1058200000FD2300F400B947A30034012301F40074
:1058300023122401A2856244F2404249B2492685DE
:10584000D24405616FE08FB2F2406244D2444249D3
:10585000B2490561828039715ECEAA8B2E8526DA27
:105860004ED652D456D25AD006DE22DC4AD8AE8466
:10587000328BB68A3A8ABE8942C6EF80107721CD34
:105880002A894145EFE02FA32A8431C5414681454D
:1058900097B0FF1FE780C0F817E5FF1F0345856538
:1058A00019E103450900930700FD2300F400BD47FB
:1058B0002301F400B247A3007401231294002304CF
:1058C0006401A304540123054401A30534015CC40D
:1058D000A285EFE0AFA9F2506254D2544259B259B6
:1058E000225A925A025BF24B21618280797126D250
:1058F000AA8439454AD04ECE06D622D42EC6B289C5
:105900003689EFE04F9B21C1B2459307000D23106C
:10591000F500B1472A842312B5002301F500CE8596
:105920001905194697B0FF1FE78000EC23062401F4
:10593000A2852254B2500259F24913F5F40F925441
:1059400045616FE0AFA2B250225492540259F2491D
:105950004561828017E7FF1F0347F7549307F00F55
:10596000630DF706411126C2AA84394522C406C632
:105970004AC0EFE04F942A8439C9930700FD230001
:10598000F500A30095002301050097E5FF1F93850F
:10599000E5520D05194697B0FF1FE780E0E417E9CF
:1059A000FF1F1309295083578900A28517E5FF1FA0
:1059B0000345754F2315F400834719002306F400AF
:1059C0002244B2409244024941016FE02F9AB24012
:1059D00022449244024941018280828001115AC0CE
:1059E0002A8B314526CA4EC652C456C206CE22CC98
:1059F0004AC8AE84B28A368ABA89EFE0CF8B35CDF9
:105A00002A842685EF80705E11C50347C500A14733
:105A10006314F70417E9FF1F0349F948930700FDD2
:105A20002300F4009D47A30064012301F400231226
:105A30009400231354012314440123153401A28537
:105A40006244F240D244B249224A924A024B4A8509
:105A5000424905616FE08F9117E9FF1F0349D95A49
:105A6000E31E0BFA938741989C439C47C5DBCE8687
:105A70005286D6852685829755B7F2406244D24435
:105A80004249B249224A924A024B05618280011181
:105A900022CC2A84214506CE2EC6EFE0CF8121C13B
:105AA000B245930700FD2300F500C5472301F5002B
:105AB00083C73500A301F50083D745002312F50005
:105AC00083C765002303F50083C77500AA85A30378
:105AD000F50022856244F24005616FE02F89F240B3
